:100000000C9464000C948C000C948C000C948C0068
:100010000C948C000C948C000C948C000C948C0030
:100020000C948C000C948C000C948C000C948C0020
:100030000C948C000C948C000C948C000C948C0010
:100040000C94E3030C948C000C94B1030C948B037C
:100050000C948C000C948C000C948C000C948C00F0
:100060000C948C000C948C006364696E6F707375D3
:1000700078585B000000000800020100000304073C
:100080000000000000000000000000002500280023
:100090002B0000000000240027002A0004040404B0
:1000A0000404040402020202020203030303030322
:1000B00001020408102040800102040810200102FF
:1000C000040810202D044F0611241FBECFEFD8E0E6
:1000D000DEBFCDBF22E0A2E6B1E001C01D92AA3290
:1000E000B207E1F711E0A0E0B1E0E0E5F7E102C01E
:1000F00005900D92A236B107D9F710E0C3E6D0E023
:1001000004C02197FE010E949B06C236D107C9F7A1
:100110000E94CD040C949B0B0C94000090E0FC0119
:10012000E055FF4F249184569F4FFC018491882312
:1001300099F090E0880F991FFC01EE56FF4FA591B2
:10014000B491FC01E857FF4F859194918FB7F894D3
:10015000EC91E22BEC938FBF0895AF92BF92CF92B8
:10016000DF92EF92FF920F931F93CF93DF936C0177
:100170007B018B01040F151FEB015E01AE18BF0858
:10018000C017D10759F06991D601ED91FC9101900A
:10019000F081E02DC6010995892B79F7C501DF9122
:1001A000CF911F910F91FF90EF90DF90CF90BF9074
:1001B000AF900895FC01538D448D252F30E0842F9E
:1001C00090E0821B930B541710F0CF96089501977F
:1001D0000895FC01918D828D981761F0A28DAE0F6C
:1001E000BF2FB11D5D968C91928D9F5F9F73928FF3
:1001F00090E008958FEF9FEF0895FC01918D828D1F
:10020000981731F0828DE80FF11D858D90E00895EB
:100210008FEF9FEF0895FC01918D228D892F90E043
:10022000805C9F4F821B91098F73992708958BE6FD
:1002300091E00E940B0121E0892B09F420E0822F3C
:10024000089580E090E0892B29F00E941701811128
:100250000C9400000895FC01A48DA80FB92FB11DC6
:10026000A35ABF4F2C91848D90E001968F739927EC
:10027000848FA689B7892C93A089B1898C918370CA
:1002800080648C93938D848D981306C00288F389C3
:10029000E02D80818F7D80830895EF92FF920F93F0
:1002A0001F93CF93DF93EC0181E0888F9B8D8C8D22
:1002B00098131AC0E889F989808185FF15C09FB716
:1002C000F894EE89FF896083E889F98980818370D9
:1002D000806480839FBF81E090E0DF91CF911F9188
:1002E0000F91FF90EF900895F62E0B8D10E00F5FA9
:1002F0001F4F0F731127E02E8C8D8E110CC00FB67F
:1003000007FCFACFE889F989808185FFF5CFCE0116
:100310000E942B01F1CFEB8DEC0FFD2FF11DE35A65
:10032000FF4FF0829FB7F8940B8FEA89FB89808199
:100330008062CFCFCF93DF93EC01888D8823B9F013
:10034000AA89BB89E889F9898C9185FD03C08081E0
:1003500086FD0DC00FB607FCF7CF8C9185FFF2CF5D
:10036000808185FFEDCFCE010E942B01E9CFDF9187
:10037000CF91089590E0FC01EC58FF4F2491FC01CF
:10038000E055FF4F3491FC01E456FF4FE491EE231A
:10039000C9F0222339F0233001F1A8F4213019F1FA
:1003A000223029F1F0E0EE0FFF1FE857FF4FA59133
:1003B000B4918FB7F894EC91611126C030953E232B
:1003C0003C938FBF08952730A9F02830C9F024301E
:1003D00049F7809180008F7D03C0809180008F77E6
:1003E00080938000DFCF84B58F7784BDDBCF84B569
:1003F0008F7DFBCF8091B0008F778093B000D2CFFC
:100400008091B0008F7DF9CF3E2BDACF089590E038
:1004100080E00895CF93DF93EC0160E08E810E942D
:10042000BA0161E08E810E94BA0160E08E810E9473
:10043000BA018BE891E00197F1F7DF91CF91089530
:10044000CF92DF92EF92FF920F931F93CF93DF93A0
:100450006C017C0187E0E80EF11CD0E0C0E0062FC3
:1004600010E0B8010C2E02C0759567950A94E2F76A
:100470006170F70181917F010E94BA012196C43019
:10048000D10579F7C601DF91CF911F910F91FF90B0
:10049000EF90DF90CF900C940A02CF92DF92EF9210
:1004A000FF920F931F93CF93DF93EC01F62E642FEF
:1004B0008C810E94BA018D818F3F19F060E00E940B
:1004C000BA010F2D10E08F8584FF25C06E0187E0F3
:1004D000C80ED11CF12CE12CB8010E2C02C0759570
:1004E00067950A94E2F76170F60181916F010E94AD
:1004F000BA01FFEFEF1AFF0A88E0E816F10461F78E
:10050000CE01DF91CF911F910F91FF90EF90DF907F
:10051000CF900C940A02B80184E0759567958A958E
:10052000E1F7CE010E9420026F2DCE01DF91CF9125
:100530001F910F91FF90EF90DF90CF900C942002CD
:1005400040E0682F8EE092E00C944D02CF93DF9351
:10055000823029F490911D02986090931D0280933F
:1005600021021092220280E48093230280E1809392
:10057000240280E580932502809112020E948E0061
:10058000809113028F3F11F00E948E00809114021F
:100590000E948E00CEE0D2E09E012E50324080912B
:1005A0001D0284FD0AC084E090E0219628173907D7
:1005B0003CF48E810E948E00EFCF88E090E0F5CF72
:1005C0008BE39DE00197F1F760E0809112020E94B9
:1005D000BA0160E0809114020E94BA018091130276
:1005E0008F3F19F060E00E94BA0180911D0284FDE6
:1005F00039C063E08EE092E00E942002CBE4D6E4B2
:10060000CE010197F1F763E08EE092E00E942002B4
:100610002197F1F763E08EE092E00E94200283E5EB
:1006200092E00197F1F762E08EE092E00E942002F2
:1006300080911D0280620E94A00284E080931E02CD
:100640008CE00E94A00281E00E94A0028BE39FE167
:100650000197F1F782E080931F0286E0DF91CF914E
:100660000C94A00280620E94A0028BE496E40197A1
:10067000F1F780911D0280620E94A00283E592E062
:100680000197F1F780911D0280620E94A002D0CFF5
:1006900041E00E944D0281E090E00895FB0101904D
:1006A0000020E9F73197AF01461B570BDC01ED91B4
:1006B000FC910280F381E02D0994CF93DF93EC014C
:1006C0008091080290910902009759F020910A0246
:1006D00030910B022C173D0720F081E0DF91CF9184
:1006E0000895BE016F5F7F4F0E94C607009789F093
:1006F0009093090280930802D0930B02C0930A02E0
:1007000020910C0230910D02232B39F7FC0110824D
:10071000E4CF80E0E3CF1F920F920FB60F92112427
:100720002F933F934F935F936F937F938F939F93F9
:10073000AF93BF93EF93FF938BE691E00E942B0161
:10074000FF91EF91BF91AF919F918F917F916F91A9
:100750005F914F913F912F910F900FBE0F901F907F
:1007600018951F920F920FB60F9211242F938F930B
:100770009F93EF93FF93E0917B01F0917C01808147
:10078000E0918101F091820182FD1BC090818091F6
:1007900084018F5F8F7320918501821741F0E09172
:1007A0008401F0E0E559FE4F958F80938401FF911D
:1007B000EF919F918F912F910F900FBE0F901F90EF
:1007C00018958081F4CF1F920F920FB60F921124CB
:1007D0002F933F938F939F93AF93BF938091670124
:1007E00090916801A0916901B0916A013091660110
:1007F00023E0230F2D3758F50196A11DB11D20933D
:1008000066018093670190936801A0936901B0939A
:100810006A018091620190916301A0916401B0919D
:1008200065010196A11DB11D809362019093630142
:10083000A0936401B0936501BF91AF919F918F9197
:100840003F912F910F900FBE0F901F90189526E8A3
:10085000230F0296A11DB11DD2CF10926E011092EE
:100860006D0188EE93E0A0E0B0E080936F0190937B
:100870007001A0937101B09372018AE091E09093AE
:100880006C0180936B0185EC90E0909378018093EC
:10089000770184EC90E090937A018093790180EC69
:1008A00090E090937C0180937B0181EC90E09093A9
:1008B0007E0180937D0182EC90E090938001809393
:1008C0007F0186EC90E090938201809381011092E9
:1008D0008401109285011092860110928701109276
:1008E0001102109210028CE191E090930F0280931C
:1008F0000E028CE0809312028FEF809313028BE044
:100900008093140285E08093150284E080931602A0
:1009100083E08093170282E08093180210921902FC
:1009200010921A0210921B0210921C0210921D02C9
:1009300081E00E94A6021092090210920802109211
:100940000B0210920A0210920D0210920C0290E01B
:1009500080E00E945D03209108023091090281111C
:1009600013C02115310519F0C9010E943D071092ED
:1009700009021092080210920D0210920C021092BD
:100980000B0210920A02089510920D0210920C02AE
:100990006DE571E0C9010C948C08CF93DF93CDB75E
:1009A000DEB728970FB6F894DEBF0FBECDBF7894A0
:1009B00084B5826084BD84B5816084BD85B5826064
:1009C00085BD85B5816085BD80916E008160809315
:1009D0006E0010928100809181008260809381007E
:1009E000809181008160809381008091800081608E
:1009F000809380008091B10084608093B1008091E9
:100A0000B00081608093B00080917A008460809310
:100A10007A0080917A00826080937A0080917A00D7
:100A2000816080937A0080917A00806880937A0058
:100A30001092C10082E00E94A602E0917B01F09139
:100A40007C0182E08083E0917701F091780110824F
:100A5000E0917901F0917A018FEC8083109283010B
:100A6000E0917F01F091800186E08083E0917D013B
:100A7000F0917E01808180618083E0917D01F09121
:100A80007E01808188608083E0917D01F0917E010C
:100A9000808180688083E0917D01F0917E0180817A
:100AA0008F7D8083E1E0809121028111E0E0E1957A
:100AB000F0E0E25FFD4F84898F5F80680E94A002B2
:100AC00064E271E08EE092E00E944E039E012F5F8F
:100AD0003F4F79012E0133E0430E511C3E0185E06A
:100AE000680E711C6E0197E0C90ED11C93E3A92E0C
:100AF00091E0B92E80E0882E80E0982E8BE691E080
:100B00000E940B01892B21F18BE691E00E94E90004
:100B10008D3041F189831A8200910C0210910D02EF
:100B20000F5F1F4FC8010E945D03882389F0209149
:100B300008023091090280910C0290910D02B701D8
:100B4000820F931F0E948C0810930D0200930C02D9
:100B50008114910499F20E941701882379F20E946E
:100B60000000C8CFFF92EF925F924F927F926F92F8
:100B7000DF92CF92BF92AF92809109028F938091C2
:100B800008028F930E9493080FB6F894DEBF0FBE41
:100B9000CDBF049709F04FC067E471E08BE691E0A8
:100BA0000E944E0340910C0250910D026091080288
:100BB000709109028BE691E00E94AD00E091210264
:100BC000E23008F055C0E150F0E0E25FFD4F84896B
:100BD0008D5F80680E94A00240910C0250910D022E
:100BE00060910802709109028EE092E00E94AD00CF
:100BF000E0912102E230F0F5E150F0E0E25FFD4FDC
:100C00008489855F80680E94A00289819A81892BEE
:100C100099F567E571E08EE092E00E944E0367E58A
:100C200071E08BE691E00E944E036BE571E08BE68C
:100C300091E00E944E0390E080E00E945D032091CD
:100C4000080230910902811120C02115310519F0E7
:100C5000C9010E943D0710920902109208021092E9
:100C60000D0210920C0210920B0210920A0270CF29
:100C7000E1E0AACFE1E0C1CF6EE571E08EE092E065
:100C80000E944E036EE571E0CCCF10920D021092DF
:100C90000C026DE571E0C9010E948C0859CF80916A
:100CA000080290910902009711F00C943D070895F5
:100CB00091110C946106803219F089508550C8F763
:100CC00008959927882708952F923F924F925F9217
:100CD0006F927F928F929F92AF92BF92CF92DF924C
:100CE000EF92FF920F931F93CF93DF93CDB7DEB7B1
:100CF000CA1BDB0B0FB6F894DEBF0FBECDBF099445
:100D00002A88398848885F846E847D848C849B849B
:100D1000AA84B984C884DF80EE80FD800C811B81A9
:100D2000AA81B981CE0FD11D0FB6F894DEBF0FBED8
:100D3000CDBFED010895EE0FFF1F0590F491E02D5A
:100D400009940F931F93CF93DF938230910510F492
:100D500082E090E0E0912802F091290230E020E06A
:100D6000B0E0A0E0309799F42115310509F44AC0AC
:100D7000281B390B24303105D8F58A819B816115F8
:100D8000710589F1FB0193838283FE0111C04081CB
:100D900051810281138148175907E0F0481759071C
:100DA00099F4109761F012960C93129713961C9376
:100DB0003296CF01DF91CF911F910F91089500934B
:100DC000280210932902F4CF2115310551F0421762
:100DD000530738F0A901DB019A01BD01DF01F801D9
:100DE000C1CFEF01F9CF9093290280932802CDCF94
:100DF000FE01E20FF31F8193919322503109398351
:100E00002883D7CF2091260230912702232B41F44B
:100E10002091020130910301309327022093260292
:100E200020910001309101012115310541F42DB7C8
:100E30003EB74091040150910501241B350BE09110
:100E40002602F0912702E217F307A0F42E1B3F0BB6
:100E50002817390778F0AC014E5F5F4F241735072C
:100E600048F04E0F5F1F5093270240932602819354
:100E700091939FCFF0E0E0E09CCFCF93DF9300977A
:100E8000E9F0FC01329713821282A0912802B091FE
:100E90002902ED0130E020E01097A1F4208131819A
:100EA000820F931F209126023091270228173907BD
:100EB00009F061C0F0932702E0932602DF91CF9101
:100EC0000895EA01CE17DF07E8F54A815B819E01AC
:100ED00041155105B1F7E901FB83EA834991599125
:100EE000C40FD51FEC17FD0761F480819181029634
:100EF000840F951FE90199838883828193819B8365
:100F00008A83F0E0E0E012968D919C911397009710
:100F1000B9F52D913C911197CD010296820F931F47
:100F200020912602309127022817390739F6309789
:100F300051F51092290210922802B0932702A09333
:100F40002602BCCFD383C28340815181840F951F79
:100F5000C817D90761F44E5F5F4F88819981480FA8
:100F6000591F518340838A819B81938382832115FA
:100F7000310509F0B0CFF0932902E09328029ECF0B
:100F8000FD01DC01C0CF13821282D7CFB0E0A0E018
:100F9000ECECF7E00C9466068C01009751F4CB0161
:100FA0000E94A1068C01C801CDB7DEB7E0E10C9428
:100FB0008206FC01E60FF71F9C0122503109E2175F
:100FC000F30708F49DC0D901CD91DC911197C617A4
:100FD000D70798F0C530D10530F3CE0104978617B6
:100FE000970708F3C61BD70B2297C193D1936D9334
:100FF0007C93CF010E943D07D6CF5B01AC1ABD0A9E
:101000004C018C0E9D1EA0912802B0912902512CFA
:10101000412CF12CE12C109731F580912602909112
:1010200027028815990509F05CC04616570608F096
:1010300058C08091000190910101009741F48DB753
:101040009EB74091040150910501841B950BE81750
:10105000F90708F055C0F0932702E0932602F90142
:1010600071836083A0CF8D919C91119712966C90A3
:10107000129713967C901397A815B90559F56C0132
:1010800042E0C40ED11CCA14DB0420F1AC014A19A1
:101090005B09DA011296159780F0628273825183A0
:1010A0004083D9016D937C93E114F10471F0D70171
:1010B0001396FC93EE93129776CF22968C0F9D1F7A
:1010C000F90191838083F301EFCFF0932902E0933C
:1010D000280269CF4816590608F42C017D01D30176
:1010E0009ACFCB010E94A1067C01009749F0AE0186
:1010F000B8010E948308C8010E943D07870153CFB1
:1011000010E000E050CFFB01DC0102C001900D9225
:1011100041505040D8F70895FB01DC0101900D9239
:101120000020E1F70895AEE0B0E0E9E9F8E00C94C2
:10113000740685E08C838B899C899A838983AE01B0
:10114000495E5F4F6D897E89CE0101960E94370A04
:101150002E96E2E00C94900620FD09C0FC0123FDD0
:1011600005C022FF02C073836283518340830895C8
:1011700044FD17C046FD1DC0DB01FC01AA0FBB1FCB
:10118000EE1FFF1F1094D1F76A0F7B1F8E1F9F1F4A
:10119000660F771F881F991F620F711D811D911D9A
:1011A000089533E0660F771F881F991F3150D1F7DC
:1011B000F3CF34E0F7CF0F931F93CF93DF938C01DE
:1011C000C8010E94470BEC0197FD08C00E94580619
:1011D000892BB1F7B801CE010E94830BCE01DF91BC
:1011E000CF911F910F9108958F929F92AF92BF92CE
:1011F000EF92FF920F931F93CF93DF938C01D62F23
:101200007A01B22E0E94470B9C0133272B32310505
:1012100029F02D323105A9F46894B7F8D15061F462
:1012200080E0DF91CF911F910F91FF90EF90BF90E1
:10123000AF909F908F900895C8010E94470B97FD33
:10124000EFCFCB2DCD7F2B2D2073F9F48033E9F434
:10125000AA24AA94AD0E89F0C8010E94470B97FDFD
:101260000CC0282F2F7D283561F4C264D25029F09C
:10127000C8010E94470B97FF08C0812C912C540194
:101280001BC0B6FE2BC0C260DA2D812C912C5401FC
:1012900020ED280F283028F1C4FD09C02A3008F1BC
:1012A000C6FF05C02F7D3FEE320F3630C8F0B801C3
:1012B0000E94830BC1FFB4CFC7FF08C0B094A094B5
:1012C00090948094811C911CA11CB11C2C2FB50101
:1012D000A401C7010E94AC0881E0A3CFC261D4CFB2
:1012E00027504C2FC501B4010E94B8084B015C0186
:1012F000C260D15009F3C8010E94470B97FFC8CFC5
:10130000D9CFA0E2B0E0E7E8F9E00C9469065C010F
:10131000962E7A01CE0101966C0180E2F6011192BF
:101320008A95E9F7F501B381890130E020E0712C5D
:10133000812CA0E041E050E0F801B3FD8591B3FFBE
:101340008191982F8F01811107C010E000E0C80142
:10135000A096EDE00C9485068E3519F42115310523
:1013600041F1A21713064CF48D3549F18D3229F461
:10137000811006C0882483941DC0882009F464C0AD
:10138000E92FE695E695E695EC0DFD2DF11D892FEB
:101390008770BA0101C0660F8A95EAF78081682BD1
:1013A0006083791651F0971510F49F5FE9CF915043
:1013B000E7CFA1E02F5F3F4FBFCF812CFBCF88202D
:1013C00019F08E8180628E83AA2359F0F6019E0166
:1013D0002F5D3F4F8081809580833196E217F30720
:1013E000C9F788248394C5010E94470B97FD16C056
:1013F000E82FE695E695E695EC0DFD2DF11D208193
:1014000030E0AC014770552702C0359527954A95C5
:10141000E2F720FD06C0B5010E94830B882069F029
:1014200094CFE114F10429F0F7018083C7010196FC
:101430007C019A94812C9110D6CFE114F10409F427
:1014400086CFF701108283CFE82FE695E695E695E3
:10145000EC0DFD2DF11D982F9770BA0101C0660F9C
:101460009A95EAF79081692B6083782EA3CFB0E03C
:10147000A0E0EDE3FAE00C9467066C01EB015A0181
:10148000FC0117821682512CF601E380FE01E3FC79
:101490008591E3FE8191182FEF018823E9F090E018
:1014A0000E945806892B21F0C6010E94DB08ECCF70
:1014B000153241F4FE01E3FC1591E3FE1191EF01B9
:1014C000153269F4C6010E94470B97FD8EC01817AC
:1014D000D9F2B6010E94830B852D90E08AC000E00E
:1014E0001A3231F4E3FC1591E3FE1191EF0101E0B2
:1014F000F12C20ED210F2A3048F101FF37C0FF20E9
:1015000059F31836B1F11C3609F43DC0112321F30B
:10151000612F70E088E690E00E943C0B892BE1F29D
:10152000912C812C00FD06C0F50180809180C501C1
:1015300002965C011E3679F5F6014681578170E00E
:1015400060E0202FC4010E94AC089ECF02606F2D86
:1015500070E090E080E040E20E94B808F62EFE01C4
:10156000E3FC1591E3FE1191EF01C3CFFF24FA9440
:10157000C8CFFE01E3FC1591E3FE1191EF0118368F
:1015800009F0C4CF08600460FE01E3FC1591E3FE9E
:101590001191EF01BBCF1336C1F401FD02C0FF244E
:1015A000F394C6010E94470B97FD1FC0811491045C
:1015B00029F0F4018083C40101964C01FA94F110E2
:1015C000F0CF00FD61CF53945FCF1B35B9F49E017E
:1015D000A4016F2DC6010E948109EC01892B89F7B6
:1015E000F6018381807309F477CF8FEF9FEF51105D
:1015F00073CFCDB7DEB7EFE00C948306C6010E942F
:10160000DB0897FDF2CF1F36A9F130F4143641F014
:10161000193639F0006405C01337B9F01537D1F722
:101620000062202FA4016F2DC6010E94F4088111D1
:10163000C8CFD6CF8114910429F0F4016082C4018F
:1016400001964C01FA94FF2071F0C6010E94470BED
:101650003C0197FD08C00E945806892B59F3B6013A
:10166000C3010E94830B8114910409F4AACFF401F1
:101670001082A7CF0061D5CFFC010590061621F09E
:101680000020D9F7C00108953197CF010895CF9375
:10169000DF93EC012B8120FF1AC026FF0CC02F7BAB
:1016A0002B838E819F8101969F838E838A8190E018
:1016B000DF91CF91089522FF18C0E881F9818081E0
:1016C000082E000C990B009729F420622B838FEFD2
:1016D0009FEFEECF3196F983E8832E813F812F5F14
:1016E0003F4F3F832E839927E3CFEA85FB850995FA
:1016F00097FFF3CF2B81019621F080E2822B8B8321
:10170000E6CF80E1FBCFFB01238120FF11C026FD46
:101710000FC08F3F980771F082832F7D2064238351
:1017200026813781215031093783268399270895EF
:101730008FEF9FEF089510E0C3E6D0E004C0FE01F4
:101740000E949B062196C436D107C9F7F894FFCFB3
:1017500000002A028000000000004D01AD00DA0008
:101760009A010B01E900FD00000000004803AD00F4
:101770000702060252656365697665642074696DC7
:10178000653A00253032643A253032643A253032E9
:10179000643A253032640052656365697665642079
:1017A00074696D653A200020504D000D0A002041FB
:0217B0004D00EA
:00000001FF
