:100000000C942A000C9447000C9447000C94470071
:100010000C9447000C9447000C9447000C94470044
:100020000C9447000C9447000C9447000C94470034
:100030000C9447000C9447000C9447000C94470024
:100040000C941A080C9447000C9447000C94470039
:100050000C94470011241FBECFE5D4E0DEBFCDBF16
:1000600011E0A0E6B0E0E0E4F0E302C005900D92FC
:10007000A437B107D9F711E0A4E7B1E001C01D92A0
:10008000A737B107E1F70E94A0140C941E180C9436
:100090000000EF92FF920F931F937B018C0120E0F1
:1000A00030E040E05FE40E94490388238CF0C801FF
:1000B000B70120E030E040E05FE40E94C1010E940F
:1000C00037049B01AC01205030404040504806C0EE
:1000D000C801B7010E9437049B01AC01B901CA01F4
:1000E0001F910F91FF90EF900895A0E0B0E0EBE733
:1000F000F0E00C944615DC012B01FA019C91923042
:1001000008F439C1EB018881823008F433C194309E
:1001100069F4843009F02FC111969C91119789815F
:10012000981709F428C1A4E6B0E025C1843009F489
:1001300021C18230A9F4923009F01DC19A01AD01AC
:1001400088E0EA010990AE01E90109929E0181501F
:10015000C1F7E201898111969C918923818308C1AD
:10016000923009F407C112962D903C901397EB0141
:100170008A819B811496AD90BD90CD90DC901797AD
:10018000EC80FD800E811F819101281B390BB90184
:1001900037FF04C066277727621B730B6032710537
:1001A0000CF061C0121613066CF537014801062EDB
:1001B00004C096948794779467940A94D2F721E0C8
:1001C00030E040E050E004C0220F331F441F551FB1
:1001D0006A95D2F721503040404050402E213F21B7
:1001E00040235123211531054105510521F021E01E
:1001F00030E040E050E079018A01E628F72808293C
:1002000019293CC0232BD1F1260E371E350146019A
:10021000062E04C096948794779467940A94D2F734
:1002200021E030E040E050E004C0220F331F441FC3
:10023000551F6A95D2F721503040404050402A2146
:100240003B214C215D21211531054105510521F04E
:1002500021E030E040E050E059016A01A628B728CB
:10026000C828D9280BC0821593052CF01C01AA249C
:10027000BB24650103C0EE24FF24870111969C91E5
:10028000D20111968C91981709F445C0992339F041
:10029000A80197012A193B094C095D0906C0A6016E
:1002A00095012E193F09400B510B57FD08C01182D3
:1002B0003382228224833583468357831DC081E0A5
:1002C00081833382228288279927DC01821B930B4A
:1002D000A40BB50B84839583A683B7830DC0220F2F
:1002E000331F441F551F24833583468357838281E0
:1002F000938101979383828324813581468157813D
:10030000DA01C9010197A109B1098F5F9F4FAF4F72
:10031000BF4328F30BC0918333822282EA0CFB1C7B
:100320000C1D1D1DE482F5820683178383E0808304
:10033000248135814681578157FF1AC0C901AA27F8
:1003400097FDA095BA2F81709070A070B0705695EF
:10035000479537952795822B932BA42BB52B848318
:100360009583A683B7838281938101969383828349
:10037000DF0101C0D201CD01CDB7DEB7E2E10C94BF
:100380006215A0E2B0E0E7ECF1E00C94521569834D
:100390007A838B839C832D833E834F835887E9E048
:1003A000EE2EF12CEC0EFD1ECE010196B7010E943F
:1003B00028068E010F5E1F4FCE010596B8010E94E0
:1003C00028068A8991E089278A8BC701B801AE0186
:1003D000475E5F4F0E9475000E945305A096E6E0BD
:1003E0000C946E15A0E2B0E0E8EFF1E00C94521529
:1003F00069837A838B839C832D833E834F835887C5
:10040000F9E0EF2EF12CEC0EFD1ECE010196B701A6
:100410000E9428068E010F5E1F4FCE010596B8017F
:100420000E942806C701B801AE01475E5F4F0E94D7
:1004300075000E945305A096E6E00C946E15A0E2AC
:10044000B0E0E5E2F2E00C94461569837A838B8391
:100450009C832D833E834F835887CE010196BE0136
:10046000675F7F4F0E942806CE010596BE016F5E32
:100470007F4F0E9428069985923088F089898230C2
:10048000C8F0943019F4823051F404C0843029F457
:10049000923081F484E690E0C6C0923049F420E0C6
:1004A0009A858A89981321E02A87CE010996BBC0D4
:1004B000823049F420E09A858A89981321E02A8BBA
:1004C000CE014196B0C02D843E844F8458886D88FB
:1004D0007E888F88988CEE24FF248701AA24BB2471
:1004E000650140E050E060E070E0E0E0F0E0C10174
:1004F00081709070892BE9F0E60CF71C081D191D1E
:100500009A01AB012A0D3B1D4C1D5D1D80E090E062
:10051000A0E0B0E0E614F7040805190520F481E036
:1005200090E0A0E0B0E0BA01A901480F591F6A1F8E
:100530007B1FAA0CBB1CCC1CDD1C97FE08C081E0F5
:1005400090E0A0E0B0E0A82AB92ACA2ADB2A3196B6
:10055000E032F10549F0660C771C881C991C569412
:10056000479437942794C3CFFA85EA892B893C892D
:100570008B859C85280F391F2E5F3F4F17C0CA01FE
:1005800081709070892B61F016950795F794E79428
:1005900080E090E0A0E0B0E8E82AF92A0A2B1B2BC3
:1005A00076956795579547952F5F3F4F77FDE7CF36
:1005B0000CC0440F551F661F771F17FD4160EE0CDE
:1005C000FF1C001F111F21503040403090E05907A0
:1005D00090E0690790E4790760F32B8F3C8FDB0193
:1005E000CA018F779070A070B07080349105A1051A
:1005F000B10561F447FD0AC0E114F10401051105DC
:1006000029F0405C5F4F6F4F7F4F40781A8EFE1786
:1006100011F081E08A8F4D8F5E8F6F8F78A383E01A
:10062000898FCE0149960E945305A096E2E10C9471
:100630006215A8E1B0E0EFE1F3E00C945215698394
:100640007A838B839C832D833E834F83588789E0F5
:10065000E82EF12CEC0EFD1ECE010196B7010E9492
:1006600028068E010F5E1F4FCE010596B8010E942D
:1006700028068985823040F08989823028F0C701B8
:10068000B8010E94A00601C08FEF6896E6E00C94C6
:100690006E15A8E1B0E0EFE4F3E00C945215698325
:1006A0007A838B839C832D833E834F83588789E095
:1006B000E82EF12CEC0EFD1ECE010196B7010E9432
:1006C00028068E010F5E1F4FCE010596B8010E94CD
:1006D00028068985823040F08989823028F0C70158
:1006E000B8010E94A00601C08FEF6896E6E00C9466
:1006F0006E15A8E1B0E0EFE7F3E00C9452156983C2
:100700007A838B839C832D833E834F83588789E034
:10071000E82EF12CEC0EFD1ECE010196B7010E94D1
:1007200028068E010F5E1F4FCE010596B8010E946C
:1007300028068985823040F08989823028F0C701F7
:10074000B8010E94A00601C081E06896E6E00C9422
:100750006E15A8E1B0E0EFEAF3E00C94521569835E
:100760007A838B839C832D833E834F83588789E0D4
:10077000E82EF12CEC0EFD1ECE010196B7010E9471
:1007800028068E010F5E1F4FCE010596B8010E940C
:1007900028068985823040F08989823028F0C70197
:1007A000B8010E94A00601C081E06896E6E00C94C2
:1007B0006E15A8E0B0E0EFEDF3E00C944F159B014F
:1007C000AC0183E08983DA01C9018827B7FD8395ED
:1007D0009927AA27BB27B82E2115310541055105B8
:1007E00019F482E089833AC08823A9F0203080E0A0
:1007F000380780E0480780E8580729F460E070E097
:1008000080E09FEC30C0EE24FF248701E21AF30A57
:10081000040B150B02C079018A018EE1C82ED12C80
:10082000DC82CB82ED82FE820F831887C801B7017C
:100830000E94040501971816190684F4082E04C0B6
:10084000EE0CFF1C001F111F0A94D2F7ED82FE82EE
:100850000F831887C81AD90ADC82CB82BA82CE01EC
:1008600001960E9453052896E9E00C946B15ACE0C4
:10087000B0E0EDE3F4E00C94561569837A838B8342
:100880009C83CE010196BE016B5F7F4F0E942806BC
:100890008D81823061F1823050F1843021F48E817B
:1008A000882351F12EC02F81388537FD20C06E81FD
:1008B0002F3131051CF06623F9F023C08EE190E062
:1008C000821B930B29853A854B855C8504C0569520
:1008D0004795379527958A95D2F76623B1F05095BD
:1008E0004095309521953F4F4F4F5F4F0EC020E010
:1008F00030E040E050E009C02FEF3FEF4FEF5FE7FF
:1009000004C020E030E040E050E8B901CA012C9674
:10091000E2E00C947215A8E0B0E0E1E9F4E00C9498
:100920004E157B018C01611571058105910519F446
:1009300082E0898360C083E089838EE1C82ED12C58
:10094000DC82CB82ED82FE820F831887C801B7015B
:100950000E940405FC013197F7FF3BC02227332793
:100960002E1B3F0B57016801022E04C0D694C7947A
:10097000B794A7940A94D2F740E050E060E070E0AA
:1009800081E090E0A0E0B0E004C0880F991FAA1FAA
:10099000BB1F2A95D2F70197A109B1098E219F218A
:1009A000A023B1230097A105B10521F041E050E05B
:1009B00060E070E04A295B296C297D294D835E83C4
:1009C0006F8378878EE190E08E1B9F0B9C838B83D7
:1009D00012C0309781F00E2E04C0EE0CFF1C001FD9
:1009E000111F0A94D2F7ED82FE820F831887CE1A68
:1009F000DF0ADC82CB821A82CE0101960E94530567
:100A00002896EAE00C946A15EF92FF920F931F93D9
:100A10007B018C0180E0E81680E0F80681E00807A1
:100A200080E0180788F48FEFE816F104010511053E
:100A300031F028F088E090E0A0E0B0E017C080E05E
:100A400090E0A0E0B0E012C080E0E81680E0F80698
:100A500080E0080781E0180728F088E190E0A0E036
:100A6000B0E004C080E190E0A0E0B0E020E230E03F
:100A700040E050E0281B390B4A0B5B0B04C0169575
:100A80000795F794E7948A95D2F7F701E459FF4F59
:100A90008081281B310941095109C9011F910F911A
:100AA000FF90EF900895DF92EF92FF920F931F93C4
:100AB000FC01E480F58006811781D180808182303D
:100AC00048F480E090E0A0E1B0E0E82AF92A0A2B9F
:100AD0001B2BA5C0843009F49FC0823021F4EE2482
:100AE000FF24870105C0E114F1040105110519F483
:100AF000E0E0F0E096C0628173819FEF6238790791
:100B00000CF05BC022E83FEF261B370B2A31310582
:100B10002CF020E030E040E050E02AC0B801A7010E
:100B2000022E04C076956795579547950A94D2F79B
:100B300081E090E0A0E0B0E004C0880F991FAA1FF8
:100B4000BB1F2A95D2F70197A109B1098E219F21D8
:100B5000A023B1230097A105B10521F081E090E029
:100B6000A0E0B0E09A01AB01282B392B4A2B5B2B7C
:100B7000DA01C9018F779070A070B0708034910550
:100B8000A105B10539F427FF09C0205C3F4F4F4F45
:100B90005F4F04C0215C3F4F4F4F5F4FE0E0F0E0FC
:100BA0002030A0E03A07A0E04A07A0E45A0710F07E
:100BB000E1E0F0E079018A0127C06038710564F551
:100BC000FB01E158FF4FD801C7018F779070A070EB
:100BD000B07080349105A105B10539F4E7FE0DC070
:100BE00080E490E0A0E0B0E004C08FE390E0A0E0FB
:100BF000B0E0E80EF91E0A1F1B1F17FF05C016956F
:100C00000795F794E794319687E016950795F79442
:100C1000E7948A95D1F705C0EE24FF248701EFEF12
:100C2000F0E06E2F679566276795902F9F77D79492
:100C3000DD24D7948E2F8695492F462B582F5D297A
:100C4000B701CA011F910F91FF90EF90DF900895B7
:100C5000FC01DB01408151812281622F6F7770E0BE
:100C6000221F2227221F9381892F880F822B282F52
:100C700030E0991F9927991F11969C931197211580
:100C80003105A9F5411551056105710511F482E0A1
:100C900037C082E89FEF13969C938E9312979A0128
:100CA000AB0167E0220F331F441F551F6A95D1F730
:100CB00083E08C930DC0220F331F441F551F1296E3
:100CC0008D919C911397019713969C938E931297F5
:100CD000203080E0380780E0480780E4580758F368
:100CE00014962D933D934D935C93179708952F3F42
:100CF000310579F4411551056105710519F484E058
:100D00008C93089564FF03C081E08C9312C01C9201
:100D100010C02F57304013963C932E93129783E0C8
:100D20008C9387E0440F551F661F771F8A95D1F774
:100D3000706414964D935D936D937C93179708950B
:100D40001F93DC01FB019C91923008F447C0808125
:100D5000823008F443C0943051F411961C918430D1
:100D600099F58181682F70E0611B71093FC0843063
:100D700021F0923031F48230B9F18181882389F1F8
:100D80002DC011961C9111978230F1F081811817B6
:100D9000D9F412962D913C911397828193818217F9
:100DA000930794F028173907BCF014968D919D9104
:100DB0000D90BC91A02D2481358146815781281743
:100DC00039074A075B0718F4112341F00AC082175C
:100DD0009307A407B50740F4112319F061E070E010
:100DE00005C06FEF7FEF02C060E070E0CB011F91A4
:100DF0000895DF93CF93CDB7DEB7A7E2B0E0E7E287
:100E0000F0E080818F778C93A7E2B0E0E7E2F0E03A
:100E1000808180648C93A7E2B0E0E7E2F0E080811B
:100E20008F7D8C93A6E2B0E0E6E2F0E080818F7DDA
:100E30008C93A6E2B0E0E6E2F0E0808184608C93DF
:100E4000A6E2B0E0E6E2F0E0808182608C93A6E268
:100E5000B0E0E6E2F0E080818E7F8C93A6E2B0E025
:100E6000E6E2F0E0808180688C93CF91DF91089575
:100E7000DF93CF93CDB7DEB728970FB6F894DEBFD8
:100E80000FBECDBF8E8378876F8381E08D831982FB
:100E90001A821B821C828E81803208F05BC08F8197
:100EA0009885009709F456C0A7E2B0E0E7E2F0E0C9
:100EB0008081807E8C93A7E2B0E0E7E2F0E0908151
:100EC0008E81892B8C93A6E2B0E0E6E2F0E080818F
:100ED00080648C930BC089819A81AB81BC8101961F
:100EE000A11DB11D89839A83AB83BC83E6E2F0E048
:100EF000808182958F70882F90E08170907000972C
:100F000061F489819A81AB81BC81803523EC9207A1
:100F100020E0A20720E0B207F0F2E6E2F0E08081F4
:100F200082958F70882F90E081709070882381F077
:100F3000A6E2B0E0E6E2F0E0808180618C93E4E23A
:100F4000F0E080819181EF81F8859183808303C0F7
:100F50001D8201C01D828D8128960FB6F894DEBFD8
:100F60000FBECDBFCF91DF910895DF93CF9300D017
:100F700000D0CDB7DEB78A837C836B8381E0898321
:100F80008A81803278F58B819C81009759F180911C
:100F90007601882339F581E0809376018B819C81ED
:100FA0009093750180937401A6E2B0E0E6E2F0E070
:100FB000808188608C93A7E2B0E0E7E2F0E0808176
:100FC000807E8C93A7E2B0E0E7E2F0E090818A8136
:100FD000892B8C93A6E2B0E0E6E2F0E080818064A9
:100FE0008C9301C0198289810F900F900F900F9000
:100FF000CF91DF910895DF93CF9300D00F92CDB7BB
:10100000DEB79B838A8381E089838A819B810097F5
:1010100049F0E4E2F0E080819181EA81FB819183F3
:10102000808301C0198289810F900F900F90CF911A
:10103000DF9108951F920F920FB60F9211242F93F4
:101040003F934F935F936F937F938F939F93AF9350
:10105000BF93EF93FF93DF93CF93CDB7DEB780912C
:10106000740190917501009799F010927601A6E2B3
:10107000B0E0E6E2F0E08081877F8C9320917401FC
:1010800030917501E4E2F0E080819181F9010995E8
:10109000CF91DF91FF91EF91BF91AF919F918F9190
:1010A0007F916F915F914F913F912F910F900FBE64
:1010B0000F901F901895DF93CF93CDB7DEB7EAE37B
:1010C000F0E08EE08083E7E3F0E087E08083E4E314
:1010D000F0E087E08083E1E3F0E08FEF8083EBE3F3
:1010E000F0E08EEF8083E8E3F0E01082E5E3F0E0EB
:1010F0001082E2E3F0E01082CF91DF910895DF9358
:10110000CF93CDB7DEB72E970FB6F894DEBF0FBEE4
:10111000CDBF8A836B834C8381E089838A8184304D
:1011200008F00CC18B81883008F008C18C818130B7
:1011300021F08C81882309F001C18A81282F30E0B9
:101140003E872D878D859E858130910509F44FC09E
:101150002D853E85223031052CF48D859E850097A6
:1011600071F0EDC02D853E852230310509F477C040
:101170008D859E858330910509F4A9C0E0C08C81DE
:10118000282F30E03C872B878B859C850097D1F0FA
:101190002B853C852130310509F0D1C0AAE3B0E0B0
:1011A000EAE3F0E08081482F8B81282F30E081E056
:1011B00090E0022E02C0880F991F0A94E2F7842B58
:1011C0008C93BDC0AAE3B0E0EAE3F0E08081482F51
:1011D0008B81282F30E081E090E0022E02C0880F42
:1011E000991F0A94E2F7809584238C93A8C08C8180
:1011F000282F30E03A87298789859A850097D1F092
:1012000029853A852130310509F099C0A7E3B0E07E
:10121000E7E3F0E08081482F8B81282F30E081E0E8
:1012200090E0022E02C0880F991F0A94E2F7842BE7
:101230008C9385C0A7E3B0E0E7E3F0E08081482F1E
:101240008B81282F30E081E090E0022E02C0880FD1
:10125000991F0A94E2F7809584238C9370C08C8147
:10126000282F30E038872F838F8198850097D1F021
:101270002F8138852130310509F061C0A4E3B0E049
:10128000E4E3F0E08081482F8B81282F30E081E07B
:1012900090E0022E02C0880F991F0A94E2F7842B77
:1012A0008C934DC0A4E3B0E0E4E3F0E08081482FEC
:1012B0008B81282F30E081E090E0022E02C0880F61
:1012C000991F0A94E2F7809584238C9338C08C810F
:1012D000282F30E03E832D838D819E810097C9F0B9
:1012E0002D813E812130310551F5A1E3B0E0E1E3EC
:1012F000F0E08081482F8B81282F30E081E090E062
:10130000022E02C0880F991F0A94E2F7842B8C9357
:1013100016C0A1E3B0E0E1E3F0E08081482F8B81CB
:10132000282F30E081E090E0022E02C0880F991F44
:101330000A94E2F7809584238C9301C019828981F5
:101340002E960FB6F894DEBF0FBECDBFCF91DF91C2
:101350000895DF93CF93CDB7DEB72E970FB6F894ED
:10136000DEBF0FBECDBF8A836B834C8381E0898350
:101370008B81883008F008C18A81282F30E03E87B1
:101380002D878D859E858130910509F450C02D856E
:101390003E85223031052CF48D859E85009771F0B5
:1013A000F1C02D853E852230310509F479C08D8547
:1013B0009E858330910509F4ACC0E4C08C81282F50
:1013C00030E03C872B878B859C850097C9F02B8567
:1013D0003C852130310549F5ABE3B0E0EBE3F0E0CB
:1013E0008081482F8B81282F30E081E090E0022E11
:1013F00002C0880F991F0A94E2F7842B8C93C5C012
:10140000ABE3B0E0EBE3F0E08081482F8B81282F45
:1014100030E081E090E0022E02C0880F991F0A940C
:10142000E2F7809584238C93B0C01982AEC08C8182
:10143000282F30E03A87298789859A850097C9F057
:1014400029853A852130310549F5A8E3B0E0E8E384
:10145000F0E08081482F8B81282F30E081E090E000
:10146000022E02C0880F991F0A94E2F7842B8C93F6
:101470008CC0A8E3B0E0E8E3F0E08081482F8B81E6
:10148000282F30E081E090E0022E02C0880F991FE3
:101490000A94E2F7809584238C9377C0198275C0F3
:1014A0008C81282F30E038872F838F819885009793
:1014B000C9F02F8138852130310549F5A5E3B0E029
:1014C000E5E3F0E08081482F8B81282F30E081E038
:1014D00090E0022E02C0880F991F0A94E2F7842B35
:1014E0008C9353C0A5E3B0E0E5E3F0E08081482FA2
:1014F0008B81282F30E081E090E0022E02C0880F1F
:10150000991F0A94E2F7809584238C933EC0198238
:101510003CC08C81282F30E03E832D838D819E81BD
:101520000097C9F02D813E812130310549F5A2E3B4
:10153000B0E0E2E3F0E08081482F8B81282F30E09B
:1015400081E090E0022E02C0880F991F0A94E2F712
:10155000842B8C931AC0A2E3B0E0E2E3F0E0808138
:10156000482F8B81282F30E081E090E0022E02C0CE
:10157000880F991F0A94E2F7809584238C9305C005
:10158000198203C0198201C0198289812E960FB673
:10159000F894DEBF0FBECDBFCF91DF910895DF93EA
:1015A000CF93CDB7DEB728970FB6F894DEBF0FBE46
:1015B000CDBF8B836C835E834D8381E08A838B8177
:1015C000843008F09FC08C81883008F09BC08D81EA
:1015D0009E81009709F496C08B81282F30E03887D0
:1015E0002F834F81588541305105A9F18F8198850E
:1015F0008230910534F42F8138852115310571F041
:1016000082C04F8158854230510509F441C08F8115
:1016100098858330910509F458C075C0E9E3F0E07E
:101620008081282F30E08C81882F90E0A90102C0B2
:10163000559547958A95E2F7CA018170898389811A
:10164000882321F4ED81FE8110825DC0ED81FE8151
:1016500081E0808358C0E6E3F0E08081282F30E00D
:101660008C81882F90E0A90102C0559547958A95F5
:10167000E2F7CA01817089838981882321F4ED8191
:10168000FE81108240C0ED81FE8181E080833BC0FD
:10169000E3E3F0E08081282F30E08C81882F90E018
:1016A000A90102C0559547958A95E2F7CA01817054
:1016B00089838981882321F4ED81FE81108223C0F2
:1016C000ED81FE8181E080831EC0E0E3F0E0808157
:1016D000282F30E08C81882F90E0A90102C0559519
:1016E00047958A95E2F7CA018170898389818823A9
:1016F00021F4ED81FE81108206C0ED81FE8181E042
:10170000808301C01A828A8128960FB6F894DEBFC2
:101710000FBECDBFCF91DF910895DF93CF93CDB7AB
:10172000DEB72D970FB6F894DEBF0FBECDBF8A830C
:101730006B8381E089838B81813021F08B818823C9
:1017400009F07FC08A81282F30E03D872C878C8567
:101750009D858130910571F12C853D8522303105C3
:101760002CF48C859D85009769F069C02C853D859A
:1017700022303105B1F18C859D858330910509F4C6
:1017800047C05DC08B81282F30E03B872A878A8540
:101790009B85009759F02A853B852130310509F05A
:1017A00051C0EAE3F0E08FEF80834CC0EAE3F0E061
:1017B000108248C08B81282F30E0398728878885A0
:1017C0009985009751F02885398521303105D1F56B
:1017D000E7E3F0E08FEF808335C0E7E3F0E01082CD
:1017E00031C08B81282F30E03F832E838E819F81F3
:1017F000009751F02E813F812130310519F5E4E346
:10180000F0E08FEF80831EC0E4E3F0E010821AC0A6
:101810008B81282F30E03D832C838C819D81009724
:1018200051F02C813D812130310561F4E1E3F0E09C
:101830008FEF808307C0E1E3F0E0108203C01982DC
:1018400001C0198289812D960FB6F894DEBF0FBEB4
:10185000CDBFCF91DF910895DF93CF9300D000D01B
:101860000F92CDB7DEB78A836B8381E089838A814B
:10187000282F30E03D832C838C819D818130910520
:10188000D1F02C813D81223031052CF48C819D8159
:10189000009761F01FC02C813D812230310581F01D
:1018A0008C819D818330910581F014C0EBE3F0E0E1
:1018B0008B81808310C0E8E3F0E08B8180830BC0D4
:1018C000E5E3F0E08B81808306C0E2E3F0E08B810A
:1018D000808301C0198289810F900F900F900F9023
:1018E0000F90CF91DF910895DF93CF9300D000D078
:1018F00000D0CDB7DEB78A837C836B8381E0898398
:101900008B819C810097E9F18A81282F30E03E830A
:101910002D838D819E8181309105E1F02D813E8165
:10192000223031052CF48D819E81009761F027C013
:101930002D813E8122303105A1F08D819E81833041
:101940009105B1F01CC0E9E3F0E08081EB81FC81FE
:10195000808318C0E6E3F0E08081EB81FC81808326
:1019600011C0E3E3F0E08081EB81FC8180830AC059
:10197000E0E3F0E08081EB81FC81808303C0198289
:1019800001C01982898126960FB6F894DEBF0FBE7A
:10199000CDBFCF91DF9108950F931F93DF93CF9326
:1019A000CDB7DEB7C455D0400FB6F894DEBF0FBE3A
:1019B000CDBFFE01EF5AFF4F80E090E0A0EFB1E411
:1019C00080839183A283B3838E01035B1F4FFE014B
:1019D000EF5AFF4F608171818281938120E030E076
:1019E0004AEF54E40E941F02DC01CB01F80180831E
:1019F0009183A283B383FE01E35BFF4F608171811A
:101A00008281938120E030E040E85FE30E94790327
:101A1000882344F4FE01E55BFF4F81E090E0918371
:101A2000808364C0FE01E35BFF4F6081718182812E
:101A3000938120E03FEF4FE757E40E941903181607
:101A40000CF043C0FE01EF5AFF4F6081718182812B
:101A5000938120E030E040E251E40E941F02DC016B
:101A6000CB018E01055B1F4FBC01CD010E944900D7
:101A7000DC01CB01F801918380831FC0FE01E75B8D
:101A8000FF4F88EC90E091838083FE01E75BFF4F7E
:101A9000808191810197F1F7FE01E75BFF4F918310
:101AA0008083DE01A55BBF4FFE01E55BFF4F8081B8
:101AB0009181019711969C938E93FE01E55BFF4FF8
:101AC000808191810097D1F627C08E01055B1F4F61
:101AD000FE01E35BFF4F60817181828193810E94EF
:101AE0004900DC01CB01F80191838083DE01A95B11
:101AF000BF4FFE01E55BFF4F808191818D939C93E9
:101B0000FE01E95BFF4F808191810197F1F7FE01B2
:101B1000E95BFF4F9183808382E00E94F40FFE0116
:101B2000ED5BFF4F80E090E0A0E7B1E4808391831C
:101B3000A283B3838E01015C1F4FFE01ED5BFF4F5B
:101B4000608171818281938120E030E04AEF54E42A
:101B50000E941F02DC01CB01F80180839183A283E4
:101B6000B383FE01FF96608171818281938120E0C1
:101B700030E040E85FE30E94790388232CF481E0A1
:101B800090E09EAF8DAF46C0FE01FF9660817181EF
:101B90008281938120E03FEF4FE757E40E941903D1
:101BA000181664F5FE01ED5BFF4F60817181828143
:101BB000938120E030E040E251E40E941F02DC010A
:101BC000CB01BC01CD010E944900DC01CB019EAFDD
:101BD0008DAF0FC088EC90E09CAF8BAF8BAD9CAD10
:101BE0000197F1F79CAF8BAF8DAD9EAD01979EAF86
:101BF0008DAF8DAD9EAD009769F716C0FE01FF96C3
:101C000060817181828193810E944900DC01CB0156
:101C10009EAF8DAF8DAD9EAD9AAF89AF89AD9AADB8
:101C20000197F1F79AAF89AF8FE20E94F40F80E03D
:101C300090E0A0E8BFE38DAB9EABAFABB8AF6DA9B2
:101C40007EA98FA998AD20E030E04AEF54E40E94CD
:101C50001F02DC01CB0189AB9AABABABBCAB69A972
:101C60007AA98BA99CA920E030E040E85FE30E94BC
:101C7000790388232CF481E090E098AB8FA73FC0D4
:101C800069A97AA98BA99CA920E03FEF4FE757E407
:101C90000E94190318164CF56DA97EA98FA998AD5D
:101CA00020E030E040E251E40E941F02DC01CB0161
:101CB000BC01CD010E944900DC01CB0198AB8FA78C
:101CC0000FC088EC90E09EA78DA78DA59EA50197DB
:101CD000F1F79EA78DA78FA598A9019798AB8FA71D
:101CE0008FA598A9009769F714C069A97AA98BA94B
:101CF0009CA90E944900DC01CB0198AB8FA78FA55E
:101D000098A99CA78BA78BA59CA50197F1F79CA7E9
:101D10008BA78CE00E94F40F80E090E0A0E8BFE386
:101D20008FA398A7A9A7BAA76FA178A589A59AA5F7
:101D300020E030E04AEF54E40E941F02DC01CB01B6
:101D40008BA39CA3ADA3BEA36BA17CA18DA19EA1DF
:101D500020E030E040E85FE30E94790388232CF420
:101D600081E090E09AA389A33FC06BA17CA18DA1E3
:101D70009EA120E03FEF4FE757E40E941903181699
:101D80004CF56FA178A589A59AA520E030E040E246
:101D900051E40E941F02DC01CB01BC01CD010E9475
:101DA0004900DC01CB019AA389A30FC088EC90E025
:101DB00098A38F8F8F8D98A10197F1F798A38F8F9C
:101DC00089A19AA101979AA389A389A19AA10097B1
:101DD00069F714C06BA17CA18DA19EA10E9449004E
:101DE000DC01CB019AA389A389A19AA19E8F8D8F33
:101DF0008D8D9E8D0197F1F79E8F8D8F81E00E94D2
:101E0000F40F80E090E0A0E7B1E4898F9A8FAB8F68
:101E1000BC8F698D7A8D8B8D9C8D20E030E04AEFF0
:101E200054E40E941F02DC01CB018D8B9E8BAF8B93
:101E3000B88F6D897E898F89988D20E030E040E8E9
:101E40005FE30E94790388232CF481E090E09C8B6F
:101E50008B8B3FC06D897E898F89988D20E03FEF05
:101E60004FE757E40E94190318164CF5698D7A8DD7
:101E70008B8D9C8D20E030E040E251E40E941F02F7
:101E8000DC01CB01BC01CD010E944900DC01CB018A
:101E90009C8B8B8B0FC088EC90E09A8B898B898907
:101EA0009A890197F1F79A8B898B8B899C89019785
:101EB0009C8B8B8B8B899C89009769F714C06D89EB
:101EC0007E898F89988D0E944900DC01CB019C8B13
:101ED0008B8B8B899C89988B8F878F8598890197AD
:101EE000F1F7988B8F8786E00E94F40F80E090E0F6
:101EF000A0E0B0E48B879C87AD87BE876B857C852F
:101F00008D859E8520E030E04AEF54E40E941F0258
:101F1000DC01CB018F839887A987BA876F81788589
:101F200089859A8520E030E040E85FE30E947903EC
:101F300088232CF481E090E09E838D833FC06F81E5
:101F4000788589859A8520E03FEF4FE757E40E9426
:101F5000190318164CF56B857C858D859E8520E0D0
:101F600030E040E251E40E941F02DC01CB01BC01E1
:101F7000CD010E944900DC01CB019E838D830FC0FF
:101F800088EC90E09C838B838B819C810197F1F797
:101F90009C838B838D819E8101979E838D838D8110
:101FA0009E81009769F714C06F81788589859A852D
:101FB0000E944900DC01CB019E838D838D819E812F
:101FC0009A83898389819A810197F1F79A8389831A
:101FD000CC5ADF4F0FB6F894DEBF0FBECDBFCF9106
:101FE000DF911F910F910895DF93CF93CDB7DEB7A7
:101FF0006D970FB6F894DEBF0FBECDBF8D8F81E019
:1020000060E040E00E94A90981E061E040E00E94B8
:10201000A90983E06D8D0E942C0C81E062E041E013
:102020000E94A90980E090E0A0E8BFE3898F9A8F21
:10203000AB8FBC8F698D7A8D8B8D9C8D20E030E0CD
:102040004AEF54E40E941F02DC01CB018D8B9E8B72
:10205000AF8BB88F6D897E898F89988D20E030E0B5
:1020600040E85FE30E94790388232CF481E090E04C
:102070009C8B8B8B3FC06D897E898F89988D20E0EA
:102080003FEF4FE757E40E94190318164CF5698D8E
:102090007A8D8B8D9C8D20E030E040E251E40E94EF
:1020A0001F02DC01CB01BC01CD010E944900DC0113
:1020B000CB019C8B8B8B0FC088EC90E09A8B898B2B
:1020C00089899A890197F1F79A8B898B8B899C89E9
:1020D00001979C8B8B8B8B899C89009769F714C027
:1020E0006D897E898F89988D0E944900DC01CB0122
:1020F0009C8B8B8B8B899C89988B8F878F859889FC
:102100000197F1F7988B8F8781E062E040E00E94B1
:10211000A9098D8D982F9295907F83E0692F0E9459
:102120002C0C81E062E041E00E94A90980E090E08F
:10213000A0E8BFE38B879C87AD87BE876B857C85D6
:102140008D859E8520E030E04AEF54E40E941F0216
:10215000DC01CB018F839887A987BA876F81788547
:1021600089859A8520E030E040E85FE30E947903AA
:1021700088232CF481E090E09E838D833FC06F81A3
:10218000788589859A8520E03FEF4FE757E40E94E4
:10219000190318164CF56B857C858D859E8520E08E
:1021A00030E040E251E40E941F02DC01CB01BC019F
:1021B000CD010E944900DC01CB019E838D830FC0BD
:1021C00088EC90E09C838B838B819C810197F1F755
:1021D0009C838B838D819E8101979E838D838D81CE
:1021E0009E81009769F714C06F81788589859A85EB
:1021F0000E944900DC01CB019E838D838D819E81ED
:102200009A83898389819A810197F1F79A838983D7
:1022100081E062E040E00E94A9096D960FB6F89453
:10222000DEBF0FBECDBFCF91DF910895DF93CF9377
:10223000CDB7DEB7AB970FB6F894DEBF0FBECDBFFC
:102240008BA781E060E041E00E94A90981E061E0A4
:1022500040E00E94A90981E062E041E00E94A909F2
:1022600083E06BA50E942C0C81E062E040E00E94BC
:10227000A90980E090E0A0E8BFE38FA398A7A9A7F1
:10228000BAA76FA178A589A59AA520E030E04AEF0A
:1022900054E40E941F02DC01CB018BA39CA3ADA3DD
:1022A000BEA36BA17CA18DA19EA120E030E040E8FF
:1022B0005FE30E94790388232CF481E090E09AA3E5
:1022C00089A33FC06BA17CA18DA19EA120E03FEF1F
:1022D0004FE757E40E94190318164CF56FA178A533
:1022E00089A59AA520E030E040E251E40E941F0257
:1022F000DC01CB01BC01CD010E944900DC01CB0116
:102300009AA389A30FC088EC90E098A38F8F8F8D3C
:1023100098A10197F1F798A38F8F89A19AA10197AE
:102320009AA389A389A19AA1009769F714C06BA108
:102330007CA18DA19EA10E944900DC01CB019AA342
:1023400089A389A19AA19E8F8D8F8D8D9E8D0197D6
:10235000F1F79E8F8D8F81E062E041E00E94A90934
:102360008BA5982F9295907F83E0692F0E942C0C6B
:1023700081E062E040E00E94A90980E090E0A0E8EE
:10238000BFE3898F9A8FAB8FBC8F698D7A8D8B8DD0
:102390009C8D20E030E04AEF54E40E941F02DC01F3
:1023A000CB018D8B9E8BAF8BB88F6D897E898F898A
:1023B000988D20E030E040E85FE30E9479038823B5
:1023C0002CF481E090E09C8B8B8B3FC06D897E89E3
:1023D0008F89988D20E03FEF4FE757E40E94190363
:1023E00018164CF5698D7A8D8B8D9C8D20E030E030
:1023F00040E251E40E941F02DC01CB01BC01CD018F
:102400000E944900DC01CB019C8B8B8B0FC088ECB8
:1024100090E09A8B898B89899A890197F1F79A8B39
:10242000898B8B899C8901979C8B8B8B8B899C8951
:10243000009769F714C06D897E898F89988D0E94F5
:102440004900DC01CB019C8B8B8B8B899C89988B01
:102450008F878F8598890197F1F7988B8F8781E017
:1024600062E041E00E94A90980E090E0A0E8BFE3BB
:102470008B879C87AD87BE876B857C858D859E8588
:1024800020E030E04AEF54E40E941F02DC01CB015F
:102490008F839887A987BA876F81788589859A8580
:1024A00020E030E040E85FE30E94790388232CF4C9
:1024B00081E090E09E838D833FC06F817885898520
:1024C0009A8520E03FEF4FE757E40E941903181662
:1024D0004CF56B857C858D859E8520E030E040E263
:1024E00051E40E941F02DC01CB01BC01CD010E941E
:1024F0004900DC01CB019E838D830FC088EC90E006
:102500009C838B838B819C810197F1F79C838B83C8
:102510008D819E8101979E838D838D819E81009701
:1025200069F714C06F81788589859A850E94490072
:10253000DC01CB019E838D838D819E819A8389836B
:1025400089819A810197F1F79A838983AB960FB6B7
:10255000F894DEBF0FBECDBFCF91DF910895DF931A
:10256000CF9300D00F92CDB7DEB79B838A831982B9
:1025700019820EC08981282F30E08A819B81FC015D
:10258000E20FF31F80810E94161189818F5F89837A
:102590008981282F30E08A819B81FC01E20FF31FA3
:1025A0008081882339F70F900F900F90CF91DF91A2
:1025B0000895DF93CF93CDB7DEB7AC970FB6F894FD
:1025C000DEBF0FBECDBF69A77AA78BA79CA7CE01A0
:1025D00001962DB73EB7285030400FB6F8943EBF55
:1025E0000FBE2DBFEDB7FEB731969183808380E695
:1025F00090E09383828389A59AA5ABA5BCA584832B
:102600009583A683B7830E947D158DB79EB70896E4
:102610000FB6F8949EBF0FBE8DBFCE0101960E94EB
:10262000AF12AC960FB6F894DEBF0FBECDBFCF9100
:10263000DF910895DF93CF93CDB7DEB72C970FB618
:10264000F894DEBF0FBECDBF69877A878B879C87E2
:1026500069857A858B859C850E943704DC01CB01D6
:102660008D839E83AF83B8876D817E818F819885AE
:102670000E94D9039B01AC0169857A858B859C8575
:102680000E94C101DC01CB0189839A83AB83BC83A7
:1026900069817A818B819C8120E030E04AE754E4B3
:1026A0000E941F02DC01CB01BC01CD010E94370456
:1026B000DC01CB01BC01CD010E94D903DC01CB01BF
:1026C00089839A83AB83BC838D819E81AF81B885DA
:1026D000BC01CD010E94D9128EE20E9416116981BF
:1026E0007A818B819C810E943704DC01CB01BC0183
:1026F000CD010E94D9122C960FB6F894DEBF0FBE02
:10270000CDBFCF91DF910895DF93CF9300D000D05C
:10271000CDB7DEB789836A838A818823E1F08A8115
:102720008131C8F48981282F30E03C832B838B8151
:102730009C818130910531F02B813C812230310523
:1027400031F009C08A8181580E94F40F04C08A8147
:1027500081540E94F40F0F900F900F900F90CF9123
:10276000DF910895DF93CF93CDB7DEB762970FB6B1
:10277000F894DEBF0FBECDBF898B6A8B80E40E94C8
:10278000F40F188A0CC08889882F90E0FC01E45966
:10279000FE4F80810E94161188898F5F888B8889FF
:1027A000803488F380E80E94F40F89896A890E9446
:1027B00084131F8678C08F850E94161180E090E0F8
:1027C000A0EAB0E48B879C87AD87BE876B857C854C
:1027D0008D859E8520E030E04AEF54E40E941F0280
:1027E000DC01CB018F839887A987BA876F817885B1
:1027F00089859A8520E030E040E85FE30E94790314
:1028000088232CF481E090E09E838D833FC06F810C
:10281000788589859A8520E03FEF4FE757E40E944D
:10282000190318164CF56B857C858D859E8520E0F7
:1028300030E040E251E40E941F02DC01CB01BC0108
:10284000CD010E944900DC01CB019E838D830FC026
:1028500088EC90E09C838B838B819C810197F1F7BE
:102860009C838B838D819E8101979E838D838D8137
:102870009E81009769F714C06F81788589859A8554
:102880000E944900DC01CB019E838D838D819E8156
:102890009A83898389819A810197F1F79A83898341
:1028A0008F858F5F8F878F85883008F484CF6296FD
:1028B0000FB6F894DEBF0FBECDBFCF91DF91089564
:1028C000DF93CF93CDB7DEB727970FB6F894DEBF6F
:1028D0000FBECDBF9C838B836D834E832F838D81F1
:1028E000882F90E0880F991F880F991F880F991FD4
:1028F0008A838A81805C0E94F40F19820EC08981CC
:10290000282F30E08B819C81FC01E20FF31F808136
:102910000E94161189818F5F89838981883078F3BD
:102920008E816F810E9484138D810E9416112796DB
:102930000FB6F894DEBF0FBECDBFCF91DF910895E3
:10294000DF93CF93CDB7DEB728970FB6F894DEBFED
:102950000FBECDBF0E945B080E94CC0C0E94F906FE
:102960009E012B5F3F4F80E0B9010E9438078D81A7
:102970009E81CC01A0E0B0E0BC01CD010E948B049F
:10298000DC01CB01BC01CD012AE038E240EA5BE387
:102990000E941F02DC01CB0189839A83AB83BC8335
:1029A00081E00E94F40F81E061E00E94841389813C
:1029B0009A81AB81BC81BC01CD010E941A1386E5CE
:1029C0000E94161169817A818B819C8120E030E020
:1029D00040EC5FE30E947903882384F482E060E0A6
:1029E00041E00E94A90982E061E040E00E94A9095B
:1029F00082E062E040E00E94A909B2CF18866981B6
:102A00007A818B819C8120E030E040EC5FE30E9482
:102A10004903882314F081E0888781E0988589271D
:102A2000882321F51F8269817A818B819C8120E036
:102A300030E040E450E40E94A903181614F081E04D
:102A40008F8381E09F818927882381F482E060E081
:102A500040E00E94A90982E061E041E00E94A909EA
:102A600082E062E040E00E94A9097ACF82E060E063
:102A700040E00E94A90982E061E040E00E94A909CB
:102A800082E062E041E00E94A9096ACF2F923F9262
:102A90004F925F926F927F928F929F92AF92BF926E
:102AA000CF92DF92EF92FF920F931F93CF93DF931A
:102AB000CDB7DEB7CA1BDB0B0FB6F894DEBF0FBE77
:102AC000CDBF09942A88398848885F846E847D84C4
:102AD0008C849B84AA84B984C884DF80EE80FD80C6
:102AE0000C811B81AA81B981CE0FD11D0FB6F8943C
:102AF000DEBF0FBECDBFED010895AEE0B0E0E3E86C
:102B0000F5E10C9454150D891E8986E08C831A8397
:102B100009838FEF9FE79E838D839E01275E3F4F42
:102B2000CE0101966F89788DA9010E94A1152F8190
:102B30003885020F131FF80110822E96E4E00C94E2
:102B40007015ABE0B0E0E7EAF5E10C9446153C0106
:102B50002B015A01FC0117821682838181FD03C07B
:102B60006FEF7FEFC6C19AE0892E1E010894211CE9
:102B7000311CF3012381F20123FD859123FF819113
:102B80002F01882309F4B2C1853239F423FD8591E0
:102B900023FF81912F01853229F490E0B3010E9437
:102BA0009417E7CF982FFF24EE249924FFE1FF1517
:102BB000D0F09B3269F09C3228F4903259F0933275
:102BC00091F40EC09D3249F0903369F441E024C085
:102BD00052E0F52A84E0F82A28C098E0F92A25C0B6
:102BE000E0E1FE2A22C0F7FC29C0892F80538A30F9
:102BF00070F4F6FE05C0989C902C1124980E15C018
:102C0000E89CE02C1124E80EF0E2FF2A0EC09E3270
:102C100029F4F6FC6BC140E4F42A07C09C3619F491
:102C200050E8F52A02C0983649F4F20123FD959147
:102C300023FF91912F01992309F0B8CF892F855453
:102C4000833018F08052833038F444E050E0A40E12
:102C5000B51E5FE359830FC0933631F0933779F097
:102C6000933509F056C020C0F5018081898342E088
:102C700050E0A40EB51E610101E010E012C0F501A4
:102C8000C080D180F6FC03C06FEF7FEF02C0692DDA
:102C900070E042E050E0A40EB51EC6010E94891704
:102CA0008C015FE7F52214C0F501C080D180F6FCED
:102CB00003C06FEF7FEF02C0692D70E042E050E08B
:102CC000A40EB51EC6010E947E178C0150E8F52A9D
:102CD000F3FE07C01AC080E290E0B3010E9494178F
:102CE000EA948E2D90E008171907A8F30EC0F6019C
:102CF000F7FC8591F7FE81916F0190E0B3010E948E
:102D00009417E110EA94015010400115110579F76C
:102D1000EAC0943611F0993669F5F7FE08C0F5015E
:102D2000208131814281538184E090E00AC0F50125
:102D3000808191819C01442737FD4095542F82E08A
:102D400090E0A80EB91E9FE6F92257FF09C05095E2
:102D50004095309521953F4F4F4F5F4FE0E8FE2A59
:102D6000CA01B901A1012AE030E00E94C017D82EA3
:102D7000D21840C0953729F41F2D1F7E2AE030E07D
:102D80001DC01F2D197F9F3661F0903720F49835B4
:102D900009F0ACC00FC0903739F0983709F0A6C0E1
:102DA00004C028E030E00AC0106114FD146020E186
:102DB00030E004C014FD166020E132E017FF08C0C7
:102DC000F501608171818281938144E050E008C007
:102DD000F50180819181BC0180E090E042E050E00B
:102DE000A40EB51EA1010E94C017D82ED2188FE7DD
:102DF000F82EF122F6FE0BC05EEFF522D91438F45E
:102E0000F4FE07C0F2FC05C08FEEF82202C01D2DB3
:102E100001C0192DF4FE0DC0FE01ED0DF11D8081E4
:102E2000803319F499EEF92208C01F5FF2FE05C045
:102E300003C08F2D867809F01F5F0F2DF3FC14C09F
:102E4000F0FE0FC01E1510F09D2C0BC09D2C9E0C8B
:102E5000911A1E2D06C080E290E0B3010E949417E3
:102E60001F5F1E15C0F304C01E1510F4E11A01C047
:102E7000EE2404FF0FC080E390E0B3010E9494179A
:102E800002FF1DC001FD03C088E790E00EC088E589
:102E900090E00BC0802F867891F001FF02C08BE29A
:102EA00001C080E2F7FC8DE290E0B3010E9494172C
:102EB00006C080E390E0B3010E9494179A94D9145D
:102EC000C0F3DA94F101ED0DF11D808190E0B301C2
:102ED0000E949417DD20A9F706C080E290E0B301BC
:102EE0000E949417EA94EE20C1F743CEF301668165
:102EF0007781CB012B96E2E10C946215FC010590E1
:102F0000615070400110D8F7809590958E0F9F1FEB
:102F10000895FC016150704001900110D8F7809530
:102F200090958E0F9F1F08950F931F93CF93DF935C
:102F30008C01EB018B8181FF1BC082FF0DC02E81B4
:102F40003F818C819D812817390764F4E881F981DC
:102F50000193F983E88306C0E885F985802F0995F8
:102F6000892B31F48E819F8101969F838E8302C0CD
:102F70000FEF1FEFC801DF91CF911F910F910895BF
:102F8000FA01AA27283051F1203181F1E8946F939A
:102F90006E7F6E5F7F4F8F4F9F4FAF4FB1E03ED040
:102FA000B4E03CD0670F781F891F9A1FA11D680FDE
:102FB000791F8A1F911DA11D6A0F711D811D911D11
:102FC000A11D20D009F468943F912AE0269F112486
:102FD0003019305D3193DEF6CF010895462F4770EA
:102FE000405D4193B3E00FD0C9F7F6CF462F4F7045
:102FF000405D4A3318F0495D31FD4052419302D0A3
:10300000A9F7EACFB4E0A695979587957795679548
:10301000BA95C9F700976105710508959B01AC0148
:103020000A2E06945795479537952795BA95C9F76F
:10303000620F731F841F951FA01D0895F894FFCF82
:10304000256C640000000000000000000001020286
:103050000303030304040404040404040505050530
:10306000050505050505050505050505060606060C
:1030700006060606060606060606060606060606F0
:1030800006060606060606060606060607070707DC
:1030900007070707070707070707070707070707C0
:1030A00007070707070707070707070707070707B0
:1030B00007070707070707070707070707070707A0
:1030C000070707070707070707070707080808088C
:1030D0000808080808080808080808080808080870
:1030E0000808080808080808080808080808080860
:1030F0000808080808080808080808080808080850
:10310000080808080808080808080808080808083F
:10311000080808080808080808080808080808082F
:10312000080808080808080808080808080808081F
:10313000080808080808080808080808080808080F
:1031400008080808080808080808080802001715F1
:043150001F0000005C
:00000001FF
