:100000000C942A000C9447000C9447000C94470071
:100010000C9447000C9447000C940E100C9447006D
:100020000C9447000C9447000C94C30E0C945A0E89
:100030000C9447000C9447000C9447000C94470024
:100040000C9447000C9447000C9447000C94470014
:100050000C94470011241FBECFE5D4E0DEBFCDBF16
:1000600011E0A8E6B1E001C01D92A237B107E1F7A7
:1000700011E0A0E6B0E0E4EFF0E202C005900D92DE
:10008000A836B107D9F70E94050C0C9478100C948F
:100090000000EF92FF920F931F937B018C0120E0F1
:1000A00030E040E05FE40E94F50388238CF0C80153
:1000B000B70120E030E040E05FE40E94C1010E940F
:1000C000B3049B01AC01205030404040504806C072
:1000D000C801B7010E94B3049B01AC01B901CA0178
:1000E0001F910F91FF90EF900895A0E0B0E0EBE733
:1000F000F0E00C944110DC012B01FA019C9192304C
:1001000008F439C1EB018881823008F433C194309E
:1001100069F4843009F02FC111969C91119789815F
:10012000981709F428C1A0E6B0E025C1843009F48D
:1001300021C18230A9F4923009F01DC19A01AD01AC
:1001400088E0EA010990AE01E90109929E0181501F
:10015000C1F7E201898111969C918923818308C1AD
:10016000923009F407C112962D903C901397EB0141
:100170008A819B811496AD90BD90CD90DC901797AD
:10018000EC80FD800E811F819101281B390BB90184
:1001900037FF04C066277727621B730B6032710537
:1001A0000CF061C0121613066CF537014801062EDB
:1001B00004C096948794779467940A94D2F721E0C8
:1001C00030E040E050E004C0220F331F441F551FB1
:1001D0006A95D2F721503040404050402E213F21B7
:1001E00040235123211531054105510521F021E01E
:1001F00030E040E050E079018A01E628F72808293C
:1002000019293CC0232BD1F1260E371E350146019A
:10021000062E04C096948794779467940A94D2F734
:1002200021E030E040E050E004C0220F331F441FC3
:10023000551F6A95D2F721503040404050402A2146
:100240003B214C215D21211531054105510521F04E
:1002500021E030E040E050E059016A01A628B728CB
:10026000C828D9280BC0821593052CF01C01AA249C
:10027000BB24650103C0EE24FF24870111969C91E5
:10028000D20111968C91981709F445C0992339F041
:10029000A80197012A193B094C095D0906C0A6016E
:1002A00095012E193F09400B510B57FD08C01182D3
:1002B0003382228224833583468357831DC081E0A5
:1002C00081833382228288279927DC01821B930B4A
:1002D000A40BB50B84839583A683B7830DC0220F2F
:1002E000331F441F551F24833583468357838281E0
:1002F000938101979383828324813581468157813D
:10030000DA01C9010197A109B1098F5F9F4FAF4F72
:10031000BF4328F30BC0918333822282EA0CFB1C7B
:100320000C1D1D1DE482F5820683178383E0808304
:10033000248135814681578157FF1AC0C901AA27F8
:1003400097FDA095BA2F81709070A070B0705695EF
:10035000479537952795822B932BA42BB52B848318
:100360009583A683B7838281938101969383828349
:10037000DF0101C0D201CD01CDB7DEB7E2E10C94BF
:100380005D10A0E2B0E0E7ECF1E00C944D10698361
:100390007A838B839C832D833E834F835887E9E048
:1003A000EE2EF12CEC0EFD1ECE010196B7010E943F
:1003B0002B068E010F5E1F4FCE010596B8010E94DD
:1003C0002B068A8991E089278A8BC701B801AE0183
:1003D000475E5F4F0E9475000E945605A096E6E0BA
:1003E0000C946910A0E2B0E0E8EFF1E00C944D103D
:1003F00069837A838B839C832D833E834F835887C5
:10040000F9E0EF2EF12CEC0EFD1ECE010196B701A6
:100410000E942B068E010F5E1F4FCE010596B8017C
:100420000E942B06C701B801AE01475E5F4F0E94D4
:1004300075000E945605A096E6E00C946910A0E2B3
:10044000B0E0E5E2F2E00C94411069837A838B839B
:100450009C832D833E834F835887CE010196BE0136
:10046000675F7F4F0E942B06CE010596BE016F5E2F
:100470007F4F0E942B069985923088F089898230BF
:10048000C8F0943019F4823051F404C0843029F457
:10049000923081F480E690E0C6C0923049F420E0CA
:1004A0009A858A89981321E02A87CE010996BBC0D4
:1004B000823049F420E09A858A89981321E02A8BBA
:1004C000CE014196B0C02D843E844F8458886D88FB
:1004D0007E888F88988CEE24FF248701AA24BB2471
:1004E000650140E050E060E070E0E0E0F0E0C10174
:1004F00081709070892BE9F0E60CF71C081D191D1E
:100500009A01AB012A0D3B1D4C1D5D1D80E090E062
:10051000A0E0B0E0E614F7040805190520F481E036
:1005200090E0A0E0B0E0BA01A901480F591F6A1F8E
:100530007B1FAA0CBB1CCC1CDD1C97FE08C081E0F5
:1005400090E0A0E0B0E0A82AB92ACA2ADB2A3196B6
:10055000E032F10549F0660C771C881C991C569412
:10056000479437942794C3CFFA85EA892B893C892D
:100570008B859C85280F391F2E5F3F4F17C0CA01FE
:1005800081709070892B61F016950795F794E79428
:1005900080E090E0A0E0B0E8E82AF92A0A2B1B2BC3
:1005A00076956795579547952F5F3F4F77FDE7CF36
:1005B0000CC0440F551F661F771F17FD4160EE0CDE
:1005C000FF1C001F111F21503040403090E05907A0
:1005D00090E0690790E4790760F32B8F3C8FDB0193
:1005E000CA018F779070A070B07080349105A1051A
:1005F000B10561F447FD0AC0E114F10401051105DC
:1006000029F0405C5F4F6F4F7F4F40781A8EFE1786
:1006100011F081E08A8F4D8F5E8F6F8F78A383E01A
:10062000898FCE0149960E945605A096E2E10C946E
:100630005D10A8E1B0E0EFE1F3E00C9449106983AC
:100640007A838B839C832D833E834F835887B9E0C5
:10065000EB2EF12CEC0EFD1ECE010196B7010E948F
:100660002B068E010F5E1F4FCE010596B8010E942A
:100670002B062985223008F47EC03989323010F4E7
:10068000B8017CC08A859A8989278A87243011F02D
:10069000223031F4231709F06EC060E670E06EC0BE
:1006A000343039F41D861E861F86188A1C861B86E8
:1006B00004C0323021F484E08987B7015FC02B8504
:1006C0003C858B899C89281B390B3C872B87ED84C3
:1006D000FE840F851889AD88BE88CF88D88CEA142F
:1006E000FB040C051D0540F4EE0CFF1C001F111F40
:1006F000215030403C872B8720E030E040E050E044
:1007000080E090E0A0E0B0E460E070E0EA14FB0478
:100710000C051D0540F0282B392B4A2B5B2BEA18C2
:10072000FB080C091D09B695A79597958795EE0CC2
:10073000FF1C001F111F6F5F7F4F6F31710531F775
:10074000DA01C9018F779070A070B0708034910584
:10075000A105B10561F427FD0AC0E114F10401050A
:10076000110529F0205C3F4F4F4F5F4F20782D87B8
:100770003E874F87588BBE01675F7F4FCB010E943A
:1007800056056896EAE00C946510A8E1B0E0EBEC41
:10079000F3E00C944D1069837A838B839C832D83C3
:1007A0003E834F83588789E0E82EF12CEC0EFD1E26
:1007B000CE010196B7010E942B068E010F5E1F4FDE
:1007C000CE010596B8010E942B068985823040F043
:1007D0008989823028F0C701B8010E94A30601C0B0
:1007E0008FEF6896E6E00C946910A8E1B0E0EBEFBB
:1007F000F3E00C944D1069837A838B839C832D8363
:100800003E834F83588789E0E82EF12CEC0EFD1EC5
:10081000CE010196B7010E942B068E010F5E1F4F7D
:10082000CE010596B8010E942B068985823040F0E2
:100830008989823028F0C701B8010E94A30601C04F
:100840008FEF6896E6E00C946910A8E1B0E0EBE267
:10085000F4E00C944D1069837A838B839C832D8301
:100860003E834F83588789E0E82EF12CEC0EFD1E65
:10087000CE010196B7010E942B068E010F5E1F4F1D
:10088000CE010596B8010E942B068985823040F082
:100890008989823028F0C701B8010E94A30601C0EF
:1008A00081E06896E6E00C946910A8E0B0E0EBE522
:1008B000F4E00C944A109B01AC0183E08983DA01D7
:1008C000C9018827B7FD83959927AA27BB27B82E8A
:1008D000211531054105510519F482E089833AC09B
:1008E0008823A9F0203080E0380780E0480780E8BE
:1008F000580729F460E070E080E09FEC30C0EE24FF
:10090000FF248701E21AF30A040B150B02C07901D8
:100910008A018EE1C82ED12CDC82CB82ED82FE8250
:100920000F831887C801B7010E94070501971816A1
:10093000190684F4082E04C0EE0CFF1C001F111FC2
:100940000A94D2F7ED82FE820F831887C81AD90A5B
:10095000DC82CB82BA82CE0101960E94560528968F
:10096000E9E00C946610ACE0B0E0E9EBF4E00C9444
:10097000511069837A838B839C83CE010196BE01DB
:100980006B5F7F4F0E942B068D81823061F1823038
:1009900050F1843021F48E81882351F12EC02F81B3
:1009A000388537FD20C06E812F3131051CF066235C
:1009B000F9F023C08EE190E0821B930B29853A85E4
:1009C0004B855C8504C056954795379527958A9544
:1009D000D2F76623B1F050954095309521953F4F61
:1009E0004F4F5F4F0EC020E030E040E050E009C0C4
:1009F0002FEF3FEF4FEF5FE704C020E030E040E033
:100A000050E8B901CA012C96E2E00C946D10EF9207
:100A1000FF920F931F937B018C0180E0E81680E02A
:100A2000F80681E0080780E0180788F48FEFE816E1
:100A3000F1040105110531F028F088E090E0A0E014
:100A4000B0E017C080E090E0A0E0B0E012C080E02D
:100A5000E81680E0F80680E0080781E0180728F033
:100A600088E190E0A0E0B0E004C080E190E0A0E088
:100A7000B0E020E230E040E050E0281B390B4A0BA8
:100A80005B0B04C016950795F794E7948A95D2F707
:100A9000F701E859FF4F8081281B310941095109AD
:100AA000C9011F910F91FF90EF900895DF92EF928F
:100AB000FF920F931F93FC01E480F580068117815C
:100AC000D1808081823048F480E090E0A0E1B0E005
:100AD000E82AF92A0A2B1B2BA5C0843009F49FC0F1
:100AE000823021F4EE24FF24870105C0E114F104D3
:100AF0000105110519F4E0E0F0E096C06281738110
:100B00009FEF623879070CF05BC022E83FEF261BAD
:100B1000370B2A3131052CF020E030E040E050E086
:100B20002AC0B801A701022E04C076956795579593
:100B300047950A94D2F781E090E0A0E0B0E004C0CD
:100B4000880F991FAA1FBB1F2A95D2F70197A109E9
:100B5000B1098E219F21A023B1230097A105B105E2
:100B600021F081E090E0A0E0B0E09A01AB01282BF9
:100B7000392B4A2B5B2BDA01C9018F779070A0705B
:100B8000B07080349105A105B10539F427FF09C083
:100B9000205C3F4F4F4F5F4F04C0215C3F4F4F4F92
:100BA0005F4FE0E0F0E02030A0E03A07A0E04A0725
:100BB000A0E45A0710F0E1E0F0E079018A0127C0D3
:100BC0006038710564F5FB01E158FF4FD801C7019A
:100BD0008F779070A070B07080349105A105B10539
:100BE00039F4E7FE0DC080E490E0A0E0B0E004C07E
:100BF0008FE390E0A0E0B0E0E80EF91E0A1F1B1F93
:100C000017FF05C016950795F794E794319687E08E
:100C100016950795F794E7948A95D1F705C0EE24C9
:100C2000FF248701EFEFF0E06E2F67956627679549
:100C3000902F9F77D794DD24D7948E2F8695492FB8
:100C4000462B582F5D29B701CA011F910F91FF90C4
:100C5000EF90DF900895FC01DB01408151812281FA
:100C6000622F6F7770E0221F2227221F9381892F26
:100C7000880F822B282F30E0991F9927991F1196F2
:100C80009C93119721153105A9F541155105610571
:100C9000710511F482E037C082E89FEF13969C93B0
:100CA0008E9312979A01AB0167E0220F331F441F06
:100CB000551F6A95D1F783E08C930DC0220F331F27
:100CC000441F551F12968D919C911397019713966F
:100CD0009C938E931297203080E0380780E048077D
:100CE00080E4580758F314962D933D934D935C93ED
:100CF000179708952F3F310579F441155105610586
:100D0000710519F484E08C93089564FF03C081E0B9
:100D10008C9312C01C9210C02F57304013963C93F6
:100D20002E93129783E08C9387E0440F551F661F24
:100D3000771F8A95D1F7706414964D935D936D93E8
:100D40007C93179708951F93DC01FB019C919230CF
:100D500008F447C08081823008F443C0943051F4D5
:100D600011961C91843099F58181682F70E0611B88
:100D700071093FC0843021F0923031F48230B9F1F2
:100D80008181882389F12DC011961C9111978230A1
:100D9000F1F081811817D9F412962D913C91139797
:100DA000828193818217930794F028173907BCF04A
:100DB00014968D919D910D90BC91A02D248135812B
:100DC00046815781281739074A075B0718F4112312
:100DD00041F00AC082179307A407B50740F4112316
:100DE00019F061E070E005C06FEF7FEF02C060E0D6
:100DF00070E0CB011F910895DF93CF93CDB7DEB79D
:100E0000EAE3F0E08EE08083E7E3F0E08FE08083C8
:100E1000E4E3F0E087E08083E1E3F0E08FEF8083BC
:100E2000EBE3F0E08EEF8083E8E3F0E01082E5E3AF
:100E3000F0E01082E2E3F0E01082CF91DF910895BC
:100E4000DF93CF93CDB7DEB72E970FB6F894DEBF02
:100E50000FBECDBF8A836B834C8381E089838A81F7
:100E6000843008F00CC18B81883008F008C18C8177
:100E7000813021F08C81882309F001C18A81282FDB
:100E800030E03E872D878D859E858130910509F460
:100E90004FC02D853E85223031052CF48D859E85F1
:100EA000009771F0EDC02D853E852230310509F4A3
:100EB00077C08D859E858330910509F4A9C0E0C077
:100EC0008C81282F30E03C872B878B859C85009771
:100ED000D1F02B853C852130310509F0D1C0AAE342
:100EE000B0E0EAE3F0E08081482F8B81282F30E0EA
:100EF00081E090E0022E02C0880F991F0A94E2F769
:100F0000842B8C93BDC0AAE3B0E0EAE3F0E08081DB
:100F1000482F8B81282F30E081E090E0022E02C024
:100F2000880F991F0A94E2F7809584238C93A8C0B8
:100F30008C81282F30E03A87298789859A85009708
:100F4000D1F029853A852130310509F099C0A7E310
:100F5000B0E0E7E3F0E08081482F8B81282F30E07C
:100F600081E090E0022E02C0880F991F0A94E2F7F8
:100F7000842B8C9385C0A7E3B0E0E7E3F0E08081A9
:100F8000482F8B81282F30E081E090E0022E02C0B4
:100F9000880F991F0A94E2F7809584238C9370C080
:100FA0008C81282F30E038872F838F819885009798
:100FB000D1F02F8138852130310509F061C0A4E3DB
:100FC000B0E0E4E3F0E08081482F8B81282F30E00F
:100FD00081E090E0022E02C0880F991F0A94E2F788
:100FE000842B8C934DC0A4E3B0E0E4E3F0E0808177
:100FF000482F8B81282F30E081E090E0022E02C044
:10100000880F991F0A94E2F7809584238C9338C047
:101010008C81282F30E03E832D838D819E81009727
:10102000C9F02D813E812130310551F5A1E3B0E0B9
:10103000E1E3F0E08081482F8B81282F30E081E0D0
:1010400090E0022E02C0880F991F0A94E2F7842BC9
:101050008C9316C0A1E3B0E0E1E3F0E08081482F7B
:101060008B81282F30E081E090E0022E02C0880FB3
:10107000991F0A94E2F7809584238C9301C019820A
:1010800089812E960FB6F894DEBF0FBECDBFCF91EB
:10109000DF910895DF93CF93CDB7DEB72E970FB6CC
:1010A000F894DEBF0FBECDBF8A836B834C8381E093
:1010B00089838B81883008F008C18A81282F30E02D
:1010C0003E872D878D859E858130910509F450C01E
:1010D0002D853E85223031052CF48D859E85009727
:1010E00071F0F1C02D853E852230310509F479C0BB
:1010F0008D859E858330910509F4ACC0E4C08C8158
:10110000282F30E03C872B878B859C850097C9F082
:101110002B853C852130310549F5ABE3B0E0EBE3AD
:10112000F0E08081482F8B81282F30E081E090E033
:10113000022E02C0880F991F0A94E2F7842B8C9329
:10114000C5C0ABE3B0E0EBE3F0E08081482F8B81DA
:10115000282F30E081E090E0022E02C0880F991F16
:101160000A94E2F7809584238C93B0C01982AEC0B4
:101170008C81282F30E03A87298789859A850097C6
:10118000C9F029853A852130310549F5A8E3B0E059
:10119000E8E3F0E08081482F8B81282F30E081E068
:1011A00090E0022E02C0880F991F0A94E2F7842B68
:1011B0008C938CC0A8E3B0E0E8E3F0E08081482F96
:1011C0008B81282F30E081E090E0022E02C0880F52
:1011D000991F0A94E2F7809584238C9377C0198233
:1011E00075C08C81282F30E038872F838F819885B8
:1011F0000097C9F02F8138852130310549F5A5E3E5
:10120000B0E0E5E3F0E08081482F8B81282F30E0CB
:1012100081E090E0022E02C0880F991F0A94E2F745
:10122000842B8C9353C0A5E3B0E0E5E3F0E080812C
:10123000482F8B81282F30E081E090E0022E02C001
:10124000880F991F0A94E2F7809584238C933EC0FF
:1012500019823CC08C81282F30E03E832D838D8104
:101260009E810097C9F02D813E812130310549F5DD
:10127000A2E3B0E0E2E3F0E08081482F8B81282FE9
:1012800030E081E090E0022E02C0880F991F0A949E
:10129000E2F7842B8C931AC0A2E3B0E0E2E3F0E023
:1012A0008081482F8B81282F30E081E090E0022E52
:1012B00002C0880F991F0A94E2F7809584238C93CB
:1012C00005C0198203C0198201C0198289812E9636
:1012D0000FB6F894DEBF0FBECDBFCF91DF9108955A
:1012E000DF93CF93CDB7DEB728970FB6F894DEBF64
:1012F0000FBECDBF8B836C835E834D8381E08A8379
:101300008B81843008F09FC08C81883008F09BC0AE
:101310008D819E81009709F496C08B81282F30E043
:1013200038872F834F81588541305105A9F18F812E
:1013300098858230910534F42F8138852115310547
:1013400071F082C04F8158854230510509F441C087
:101350008F8198858330910509F458C075C0E9E301
:10136000F0E08081282F30E08C81882F90E0A90167
:1013700002C0559547958A95E2F7CA018170898325
:101380008981882321F4ED81FE8110825DC0ED8189
:10139000FE8181E0808358C0E6E3F0E08081282F61
:1013A00030E08C81882F90E0A90102C055954795C7
:1013B0008A95E2F7CA01817089838981882321F4A3
:1013C000ED81FE81108240C0ED81FE8181E080834D
:1013D0003BC0E3E3F0E08081282F30E08C81882F50
:1013E00090E0A90102C0559547958A95E2F7CA0198
:1013F000817089838981882321F4ED81FE811082A7
:1014000023C0ED81FE8181E080831EC0E0E3F0E037
:101410008081282F30E08C81882F90E0A90102C0C4
:10142000559547958A95E2F7CA018170898389812C
:10143000882321F4ED81FE81108206C0ED81FE81BA
:1014400081E0808301C01A828A8128960FB6F894C1
:10145000DEBF0FBECDBFCF91DF910895DF93CF9355
:10146000CDB7DEB72D970FB6F894DEBF0FBECDBF58
:101470008A836B8381E089838B81813021F08B812A
:10148000882309F07FC08A81282F30E03D872C8790
:101490008C859D858130910571F12C853D852230AB
:1014A00031052CF48C859D85009769F069C02C85E9
:1014B0003D8522303105B1F18C859D8583309105C4
:1014C00009F447C05DC08B81282F30E03B872A8715
:1014D0008A859B85009759F02A853B852130310507
:1014E00009F051C0EAE3F0E08FEF80834CC0EAE3FB
:1014F000F0E0108248C08B81282F30E039872887A0
:1015000088859985009751F02885398521303105E6
:10151000D1F5E7E3F0E08FEF808335C0E7E3F0E05B
:10152000108231C08B81282F30E03F832E838E8143
:101530009F81009751F02E813F812130310519F5AF
:10154000E4E3F0E08FEF80831EC0E4E3F0E010827C
:101550001AC08B81282F30E03D832C838C819D81A4
:10156000009751F02C813D812130310561F4E1E398
:10157000F0E08FEF808307C0E1E3F0E0108203C06A
:10158000198201C0198289812D960FB6F894DEBFA9
:101590000FBECDBFCF91DF910895DF93CF9300D0E1
:1015A00000D00F92CDB7DEB78A836B8381E0898349
:1015B0008A81282F30E03D832C838C819D8181306E
:1015C0009105D1F02C813D81223031052CF48C81A4
:1015D0009D81009761F01FC02C813D812230310533
:1015E00081F08C819D818330910581F014C0EBE303
:1015F000F0E08B81808310C0E8E3F0E08B81808392
:101600000BC0E5E3F0E08B81808306C0E2E3F0E00D
:101610008B81808301C0198289810F900F900F9078
:101620000F900F90CF91DF910895DF93CF9300D06B
:1016300000D000D0CDB7DEB78A837C836B8381E096
:1016400089838B819C810097E9F18A81282F30E082
:101650003E832D838D819E8181309105E1F02D8126
:101660003E81223031052CF48D819E81009761F0FE
:1016700027C02D813E8122303105A1F08D819E81D0
:1016800083309105B1F01CC0E9E3F0E08081EB818B
:10169000FC81808318C0E6E3F0E08081EB81FC816F
:1016A000808311C0E3E3F0E08081EB81FC818083E3
:1016B0000AC0E0E3F0E08081EB81FC81808303C01D
:1016C000198201C01982898126960FB6F894DEBF6F
:1016D0000FBECDBFCF91DF910895DF93CF93CDB7EC
:1016E000DEB761970FB6F894DEBF0FBECDBF988B03
:1016F0008F8772C080E090E0A0E8BFE38B879C8773
:10170000AD87BE876B857C858D859E8520E030E02A
:101710004AEF54E40E941F02DC01CB018F839887BB
:10172000A987BA876F81788589859A8520E030E01E
:1017300040E85FE30E94250488232CF481E090E0D8
:101740009E838D833FC06F81788589859A8520E04F
:101750003FEF4FE757E40E94C50318164CF56B8521
:101760007C858D859E8520E030E040E251E40E943A
:101770001F02DC01CB01BC01CD010E944900DC014C
:10178000CB019E838D830FC088EC90E09C838B837C
:101790008B819C810197F1F79C838B838D819E8146
:1017A00001979E838D838D819E81009769F714C078
:1017B0006F81788589859A850E944900DC01CB017B
:1017C0009E838D838D819E819A83898389819A816D
:1017D0000197F1F79A838983198A8F8598890097F1
:1017E00011F081E0898B8F8598890197988B8F877D
:1017F0008989882309F07ECF61960FB6F894DEBF01
:101800000FBECDBFCF91DF910895DF93CF93CDB7BA
:10181000DEB7E4970FB6F894DEBF0FBECDBF0E94CF
:10182000FC060E940B0F8FE19EE40E94910F1CAA00
:101830001BAAC6C08BA90E94BF0D80E090E0AAEF52
:10184000B3E48DA79EA7AFA7B8AB6DA57EA58FA566
:1018500098A92BEA3AEA4AE250E40E941F02DC010E
:10186000CB0189A79AA7ABA7BCA769A57AA58BA529
:101870009CA520E030E040E85FE30E942504882337
:101880001CF481E088A791C069A57AA58BA59CA5C9
:1018900020E030E04FE753E40E94C50318160CF037
:1018A0007BC06DA57EA58FA598A920E030E04AE712
:1018B00054E40E941903DC01CB018CA39DA3AEA3C9
:1018C000BFA36CA17DA18EA19FA120E030E04AEFD3
:1018D00054E40E941F02DC01CB0188A399A3AAA3B0
:1018E000BBA368A179A18AA19BA120E030E040E8D8
:1018F0005FE30E94250488232CF481E090E09F8F11
:101900008E8F3FC068A179A18AA19BA120E03FEF03
:101910004FE757E40E94C50318164CF56CA17DA152
:101920008EA19FA120E030E040E251E40E941F021E
:10193000DC01CB01BC01CD010E944900DC01CB01DF
:101940009F8F8E8F0FC088EC90E09D8F8C8F8C8D39
:101950009D8D0197F1F79D8F8C8F8E8D9F8D0197B7
:101960009F8F8E8F8E8D9F8D009769F724C068A101
:1019700079A18AA19BA10E944900DC01CB019F8F24
:101980008E8F8E8D9F8D9B8F8A8F8A8D9B8D0197D9
:10199000F1F79B8F8A8F0FC069A57AA58BA59CA5AF
:1019A0000E944900DC01CB0188A788A5898F898D19
:1019B0008A95F1F7898F8BA99CA901969CAB8BAB7B
:1019C0008BA99CA9853B91050CF434CF88EE93E05C
:1019D0000E946D0B84EB90E09AAB89ABC6C089A9DD
:1019E0000E94BF0D80E090E0AAEFB3E48D8B9E8B48
:1019F000AF8BB88F6D897E898F89988D2BEA3AEAF3
:101A00004AE250E40E941F02DC01CB01898B9A8BD1
:101A1000AB8BBC8B69897A898B899C8920E030E00B
:101A200040E85FE30E94250488231CF481E0888B52
:101A300091C069897A898B899C8920E030E04FE7E1
:101A400053E40E94C50318160CF07BC06D897E8993
:101A50008F89988D20E030E04AE754E40E94190312
:101A6000DC01CB018C879D87AE87BF876C857D8528
:101A70008E859F8520E030E04AEF54E40E941F02EB
:101A8000DC01CB0188879987AA87BB876885798520
:101A90008A859B8520E030E040E85FE30E942504D2
:101AA00088232CF481E090E09F838E833FC068857B
:101AB00079858A859B8520E03FEF4FE757E40E94B8
:101AC000C50318164CF56C857D858E859F8520E0B5
:101AD00030E040E251E40E941F02DC01CB01BC0176
:101AE000CD010E944900DC01CB019F838E830FC092
:101AF00088EC90E09D838C838C819D810197F1F728
:101B00009D838C838E819F8101979F838E838E819D
:101B10009F81009769F724C0688579858A859B85B0
:101B20000E944900DC01CB019F838E838E819F81BF
:101B30009B838A838A819B810197F1F79B838A83A8
:101B40000FC069897A898B899C890E944900DC01D0
:101B5000CB01888B8889898389818A95F1F789836C
:101B600089A99AA901979AAB89AB89A99AA99923BE
:101B70000CF035CF88EE93E00E946D0B58CEDF93CA
:101B8000CF9300D000D00F92CDB7DEB78D838D817B
:101B9000882F90E0AA2797FDA095BA2FBC01CD0110
:101BA0000E945504DC01CB01BC01CD0120E030E0F6
:101BB0004AE754E40E941F02DC01CB01BC01CD01C5
:101BC00020E030E044E353E40E941903DC01CB0140
:101BD000BC01CD0120E030EC49E754E40E94F20161
:101BE000DC01CB0189839A83AB83BC8369817A81D1
:101BF0008B819C810E944900DC01CB010E946D0F0A
:101C00000F900F900F900F900F90CF91DF9108954C
:101C1000DF93CF93CDB7DEB7A3E5B0E0E3E5F0E027
:101C2000808180648C93A3E5B0E0E3E5F0E08081FF
:101C300088608C93A3E5B0E0E3E5F0E080818F7EDF
:101C40008C93A3E5B0E0E3E5F0E0808180628C93C3
:101C5000ECE5F0E085E08083A3E5B0E0E3E5F0E0CB
:101C60008081887F8C93A3E5B0E0E3E5F0E080819C
:101C700082608C93CF91DF910895DF93CF9300D052
:101C80000F92CDB7DEB79B838A8381E089838A81F7
:101C90009B81009739F08A819B81909369018093A1
:101CA000680101C0198289810F900F900F90CF9128
:101CB000DF9108951F920F920FB60F9211242F9368
:101CC0003F934F935F936F937F938F939F93AF93C4
:101CD000BF93EF93FF93DF93CF93CDB7DEB78091A0
:101CE0006E0190916F01019690936F0180936E0148
:101CF00080916E0190916F012FE08334920799F4E7
:101D000010926F0110926E01E2E5F0E080EC8083AA
:101D10008091680190916901009729F0E091680134
:101D2000F09169010995CF91DF91FF91EF91BF91FA
:101D3000AF919F918F917F916F915F914F913F9163
:101D40002F910F900FBE0F901F901895DF93CF9398
:101D500000D00F92CDB7DEB79B838A8381E0898361
:101D60008A819B81009739F08A819B8190936B01D6
:101D700080936A0101C0198289810F900F900F90A2
:101D8000CF91DF9108951F920F920FB60F921124F9
:101D90002F933F934F935F936F937F938F939F9373
:101DA000AF93BF93EF93FF93DF93CF93CDB7DEB79E
:101DB00080917001909171010196909371018093CF
:101DC0007001809170019091710127E2803192073A
:101DD00079F4109271011092700180916A019091D2
:101DE0006B01009729F0E0916A01F0916B01099570
:101DF000CF91DF91FF91EF91BF91AF919F918F9123
:101E00007F916F915F914F913F912F910F900FBEF6
:101E10000F901F901895DF93CF93CDB7DEB7AFE447
:101E2000B0E0EFE4F0E080818E7F8C93AFE4B0E02F
:101E3000EFE4F0E0808182608C93AEE4B0E0EEE409
:101E4000F0E0808188608C93AEE4B0E0EEE4F0E0F6
:101E5000808180618C93AFE4B0E0EFE4F0E08081BA
:101E60008F7B8C93AFE4B0E0EFE4F0E0808180689A
:101E70008C93AFE4B0E0EFE4F0E080818F7E8C9350
:101E8000AFE4B0E0EFE4F0E0808180628C93AEE4F8
:101E9000B0E0EEE4F0E080818E7F8C93AEE4B0E0C1
:101EA000EEE4F0E0808182608C93AEE4B0E0EEE49A
:101EB000F0E080818B7F8C93CF91DF910895DF9349
:101EC000CF930F92CDB7DEB78983ECE5F0E089813F
:101ED00080830F90CF91DF910895DF93CF9300D04F
:101EE000CDB7DEB79A838983EAE4F0E089819A81ED
:101EF000918380830F900F90CF91DF910895DF93AE
:101F0000CF9300D0CDB7DEB79A838983E8E4F0E0C1
:101F100089819A81918380830F900F90CF91DF9177
:101F20000895DF93CF9300D0CDB7DEB79A8389832E
:101F3000E6E4F0E089819A81918380830F900F908D
:101F4000CF91DF910895DF93CF93CDB7DEB7AEE4A5
:101F5000B0E0EEE4F0E0808180648C93A9E5B0E02D
:101F6000E9E5F0E0808180628C93CF91DF91089564
:101F7000DF93CF9300D00F92CDB7DEB789838981ED
:101F8000282F30E03B832A838A819B81009731F0A0
:101F90002A813B812130310549F00FC0AEE4B0E029
:101FA000EEE4F0E0808180648C9307C0AEE4B0E0A2
:101FB000EEE4F0E080818F7B8C930F900F900F9078
:101FC000CF91DF910895DF93CF93CDB7DEB7E6E4ED
:101FD000F0E080819181CF91DF910895DF93CF93DD
:101FE000CDB7DEB7A9E5B0E0E9E5F0E080818F7D0F
:101FF0008C93CF91DF910895DF93CF9300D0CDB72D
:10200000DEB79A83898389819A8190936D01809349
:102010006C010F900F90CF91DF9108951F920F9256
:102020000FB60F9211242F933F934F935F936F93AB
:102030007F938F939F93AF93BF93EF93FF93DF9320
:10204000CF93CDB7DEB780916C0190916D01009771
:1020500029F0E0916C01F0916D010995CF91DF912C
:10206000FF91EF91BF91AF919F918F917F916F9170
:102070005F914F913F912F910F900FBE0F901F9046
:1020800018952F923F924F925F926F927F928F920C
:102090009F92AF92BF92CF92DF92EF92FF920F93F7
:1020A0001F93CF93DF93CDB7DEB7CA1BDB0B0FB601
:1020B000F894DEBF0FBECDBF09942A8839884888BE
:1020C0005F846E847D848C849B84AA84B984C88454
:1020D000DF80EE80FD800C811B81AA81B981CE0F4B
:1020E000D11D0FB6F894DEBF0FBECDBFED01089530
:0420F000F894FFCF92
:1020F40000000000000000000001020203030303CB
:102104000404040404040404050505050505050583
:102114000505050505050505060606060606060663
:10212400060606060606060606060606060606064B
:102134000606060606060606070707070707070733
:10214400070707070707070707070707070707071B
:10215400070707070707070707070707070707070B
:1021640007070707070707070707070707070707FB
:1021740007070707070707070808080808080808E3
:1021840008080808080808080808080808080808CB
:1021940008080808080808080808080808080808BB
:1021A40008080808080808080808080808080808AB
:1021B400080808080808080808080808080808089B
:1021C400080808080808080808080808080808088B
:1021D400080808080808080808080808080808087B
:1021E400080808080808080808080808080808086B
:0821F4000808080808080808A3
:00000001FF
